:020000040800F2
:10000000C8230020890100088D0100088F01000825
:10001000910100089301000895010008000000000C
:100020000000000000000000000000009701000830
:1000300099010008000000009B010008493A0008EF
:10004000FD3C0008D9380008A93A000875390008B5
:100050002D3400080D390008B9330008F1330008C9
:10006000F7330008F9330008FB3300089F0100084C
:100070009F0100089F0100089F0100089F010008E0
:100080009F0100089F0100089F0100089F010008D0
:100090009F0100089F0100089F010008FD33000830
:1000A000AB3A0008B13A0008AF3A0008AD3A000890
:1000B000FD3A0008293B00082B3B000847360008A2
:1000C000453600084B3600084936000877390008E5
:1000D00079390008913C0008933C0008953C0008E1
:1000E000BD3300086D390008973C000800F002F8A5
:1000F00000F03AF80AA090E8000C82448344AAF188
:100100000107DA4501D100F02FF8AFF2090EBAE885
:100110000F0013F0010F18BFFB1A43F0010318473B
:100120006049000080490000103A24BF78C878C1B7
:10013000FAD8520724BF30C830C144BF04680C60ED
:10014000704700000023002400250026103A28BF35
:1001500078C1FBD8520728BF30C148BF0B60704739
:100160001FB51FBD10B510BD02F0DBFD1146FFF736
:10017000F7FF03F0CDFD02F0F9FD03B4FFF7F2FF46
:1001800003BC02F0FFFD000008480047FEE7FEE761
:10019000FEE7FEE7FEE7FEE7FEE7FEE7FEE7FEE737
:1001A00003480449024A044B70470000ED00000870
:1001B000C81B0020C8230020C81B002000F00CB87A
:1001C00000F00EB870B50D4600F00AF80446284657
:1001D00000F002F8204370BD034988840020704776
:1001E0000149488400207047D01800201E49002291
:1001F00048684A6070471C494A68002A00D1486034
:10020000704700B5FFF7F2FF0028FBD100BD164A8A
:100210000832C2E90001144901200860704770B536
:10022000114A0020116800290FD0491E02F108046C
:100230001160D4E90051284601F0FCFE60680128F5
:1002400002D12846FFF7D7FF012070BD70B50446E4
:100250000D4601F0EFFE002804D129462046BDE8F6
:100260007040D4E770BD0000140000200748007DF6
:1002700070470648407D7047044A0146107D11755D
:100280007047024A0146507D51757047D0180020D2
:1002900001F02ABE01F034BE024A916900B19061BA
:1002A00008467047D018002030B40246604C0B4618
:1002B000401C07D0581C05D06068411C02D0A168C2
:1002C0004D1C02D14FF0FF300146C4E9012330BC80
:1002D00001F0B8BA5648C068704755480069704781
:1002E000534840F63C71243001604FF496714160F0
:1002F00040F6D8618160C821C16070472DE9F84F90
:1003000004000A9D0E46174699464FF000000FD094
:10031000EF218846B9EB050100D54942142904DBD9
:10032000F11B00D54942142905DA0120BDE8F88FF8
:1003300040F28F11EDE74B463146009500F06DF825
:10034000DFF8ECA04B460AF1240A3A464AF834009A
:1003500031464046009500F060F80AEBC401486061
:100360000020E3E7324B10B5243353F8304003EB61
:10037000C0000C604068106010BD70B52C4D2C4C56
:100380002435D5E90001884202DAC4E9050101E01B
:10039000C4E90510D5E90201884202DAC4E907017F
:1003A00001E0C4E907102078B0B103F09BF8E060E9
:1003B00003F096F804F10C0007C8904208DBA2692C
:1003C000904205DCE269914202DB226A91420BDD38
:1003D0004FF0FF3001461BE003F0B9F8206103F055
:1003E00080F82078401C16E02A6840F28F13801AAB
:1003F00058436B689A1A90FBF2F3AA68881A00EBCC
:100400000011C1EB0020E968891A90FBF1F1184650
:10041000FFF74AFF0020207070BD10B5401A029C03
:10042000E41A4443501A94FBF0F0184410BD000045
:10043000240000202DE9F04782464FF0FF390025C7
:10044000DFF8C88219E006EB460531F81000528843
:1004500031F915701044381A04B254450CDA5CB105
:10046000AB48391808EB4500B0F90220081B02F030
:10047000A4FB381B28F81500354605EB450008EBB2
:10048000400241461679002EDDD105EB450208EB0E
:10049000400031F91220B0F902001044C0F5A0511B
:1004A000514500DBA9460FFA89F0BDE8F08799486D
:1004B000A1210422416081604FF4A051C1810182D9
:1004C000002101608181914842800180017192493F
:1004D0000120087070472DE9F041044600F00FF943
:1004E000E41CDFF8308224F0030004B2B8F90E00F7
:1004F000A04257DB854E012000EB400106EB410195
:10050000498851B1401CA228F6DB0025F5B32046EE
:1005100000F0CBF8411C02D006E005B2F6E7204619
:10052000FFF788FF411C3DD000EB400206EB420C78
:1005300036F81210BCF8022005EB45078B1806EBC5
:1005400047029CF80410548026F81730117121B12D
:1005500001EB410106EB41014D7150718CF80450E3
:10056000D8F800004146401CC8F80000D8F8040044
:10057000401EC8F80400D8F80820824200DD8860D8
:10058000888920448881C889001B00E00AE000B205
:10059000C881B1F91020824201DDA8F81000284678
:1005A000BDE8F0810020FBE7002800D093E770470A
:1005B000002806D0554900EB400031F9100054499D
:1005C0000844704710B500F09AF85248B0F90E0090
:1005D00010BD70B5002400F092F800204B4D0DE0E6
:1005E00035F812005A88104401EB410235F8122008
:1005F000101A00B2A04200DD0446084600EB40029B
:1006000005EB420319790029EAD100EB400005EB24
:10061000420135F91000B1F902100844C0F5A050AC
:1006200000B2A04200DD0446204670BD002806D07E
:10063000364900EB400001EB4000B0F90200704782
:10064000002801D000F00AB8704710B50446B0F990
:100650000000FFF7F5FF0020208010BD2B4B00EBC2
:10066000400010B503EB4001B1F9020000281BD097
:10067000284AD4890444D4819489201A9081002086
:1006800048800879497901EB410403EB4404207167
:1006900020B100EB400003EB400041715068401C6A
:1006A00050601068401E106010BD30B50021174D1D
:1006B0000CE035F91330B4F90240234402EB420454
:1006C00035F91440E31A834214DA114601EB410371
:1006D00005EB43042279002AEBD101EB410205EB43
:1006E000430335F91220B3F902301A44C2F5A0527F
:1006F000824201DB08B230BD4FF0FF3030BD06480A
:100700000078002800D1D2E670470000F0140020E5
:10071000F0000020BC180020580000201D4880690F
:10072000407D704700B5FFF7F9FF1A498A8C1044E5
:100730008884088C488400BD10B504460A280ED071
:100740000D2C0FD013488069016820468847124855
:100750000168002906D02046BDE810400847BDE8E2
:100760001040DFE710BD0B490020898D01F00C021D
:100770000849042A896906D0082A01D00C2A01D127
:10078000087D40087047087D401E7047014989690F
:1007900049680847D0180020680000202DE9FC4176
:1007A00004460D4616461F46042001F02DFA364930
:1007B0008046086C496C044406440D440F44ADF86F
:1007C0000040ADF80460ADF80250ADF80670684620
:1007D00000F0A2FC07E03B4632462946204601F0E5
:1007E00056FA00F072FC0028F5D1404601F00CFAF0
:1007F000BDE8FC8110B500210846FFF7E3FC40F698
:10080000FF725042BDE8104013460146C6E770B57E
:100810001E4D2E20287002F0CFFE1B4C261D201DE1
:10082000266101F089FB1A48A0641A482661A0617C
:100830000120207500F09AFEA087032084F84C0068
:100840006FF0704020636063002001F04DFB6FF09B
:100850007F4001F055FB1048E06101F028FB0446A1
:1008600000F004FE0AE00A48083000F0E1FE002132
:100870000846FFF7A7FC6968491C69606868642836
:10088000F1DB204670BD0000D01800205C00002085
:10089000343D0008AC490008CC490008B0F900100C
:1008A000B0F90420914205DCB0F90210B0F906005D
:1008B000814201DD00207047012070477CB50D4664
:1008C000FFF776FE0446808B81071CD540F60101B8
:1008D0000840012817D02846FFF7E0FF002812D073
:1008E00022462946684600F06CFE6846FFF7D6FFB0
:1008F000002808D0A08B810606D504F108016A46BD
:10090000084600F00BFF7CBDDDE90012C4E90212CD
:10091000FD4940F02000A083C888401CC8807CBDF1
:100920000B46B0F90220B0F90010184600F022BFC3
:100930001CB5F6490446886B40B1026800924068D5
:100940000190F148B0F9120038B904E02046BDE842
:100950001C4001F0FBBAB1F93C00FFF729FE6946E3
:10096000FFF7DEFF2146684600F00EFE684601F004
:10097000EDFA1CBD2DE9F04107460E463046FFF763
:1009800017FE0446808B800711D52146384600F0BB
:10099000FBFDB4F916500DB12E46EFE7DA480A30E8
:1009A000B0F90000B04202D10120BDE8F081002082
:1009B000FBE71CB5D44C607818B1BDE81C40D448A6
:1009C000B6E7D248B0F93C00FFF7F2FDD0E90010DD
:1009D000CDE90010B4F9121011B16846FFF7CAFF53
:1009E0006846FFF7A5FF1CBD2DE9F0470C00064641
:1009F00019D0FFF7DDFD054600206883EC82204614
:100A0000FFF7D6FD0746A88B00F00808B7F91800D5
:100A10005FEA000906D0FFF7CBFD0446B8F1000FEE
:100A200003D008E03E83BDE8F087A08B000702D525
:100A3000A5F81A90F6E7B4F91A7037B13846FFF7FF
:100A4000B7FDB8F1000F02D007E06683EBE7818BBA
:100A5000090702D566836F83E5E70446EBE770B5C7
:100A60000546FFF7A5FD0446B0F9160000280AD098
:100A7000FFF79EFD0646B0F91800A8420ED1FFF719
:100A800097FD408B308370BDFFF792FD0146B0F9B2
:100A90001A00A84202D1608B488370BD0028F3D1B0
:100AA00070BD70B505469848B0F9084008E0294681
:100AB0002046FFF703FF2046FFF77AFDB0F9144008
:100AC000002CF4D170BD70B50546FFF771FD0446EA
:100AD000C08A002807D02846FFF7C1FF2046FFF74D
:100AE000E0FF0020E08270BD70B5884CB4F93C6036
:100AF00010B98548B0F90800A087FFF759FD0546F1
:100B000001F0D1F9B5F900002064B5F90200606484
:100B1000304670BD70B505467B48B0F908000DE061
:100B2000FFF746FDB0F914100446A94205D1284646
:100B3000FFF73EFD808AA08270BD08460028EFD1F5
:100B400070BD70B50D4604000AD0FFF731FD016994
:100B5000002905D0AC8002692846BDE870401047E6
:100B600070BD0EB50091ADF804006946FFF7E9FFCE
:100B70000EBD10B504466448B0F9080007E0A04275
:100B800001D1012010BDFFF713FDB0F914000028BA
:100B9000F5D110BD70B5040048D0FFF7EAFF00287A
:100BA00044D02046FFF704FD574E05460020B08292
:100BB000B6F91010A14200D13082B6F90E10A14250
:100BC00000D1F0812246B16905E0B1F904309342C9
:100BD00000D1888009680029F7D10721104601F06B
:100BE00021FAB5F9180000F022F80B212046FFF792
:100BF000B8FF2046FFF767FF2046FFF78BFFA88B63
:100C0000C10703D0716AA1F101017162800602D5AA
:100C1000F088401EF080B088401EB0802046FFF76C
:100C20000FFDB6F90800BDE870405DE770BD70B516
:100C3000044608E02046FFF7BBFCB0F91A502046F6
:100C4000FFF7A8FF2C46002CF4D170BD29E72DE951
:100C5000FC410D4690463EE0FFF7AAFC848B064619
:100C6000A00736D55FEA080005D00246314668463F
:100C700000F0A7FC03E0D6E90001CDE900016946D8
:100C8000284600F086FD20B3E00702D0B6F91840F0
:100C90001DE0B6F90200B5F90210884205DDBDF984
:100CA0000200401E03E0E88013E0BDF90600B5F93C
:100CB00006108842F7DB0CE02046FFF779FC074678
:100CC0006A4629462046FFF7C2FFB7F91A40002CB2
:100CD000F2D1B6F91A000028BED1BDE8FC812DE999
:100CE000FC478846914600263AE0FFF761FC848B7A
:100CF0000546A00732D55FEA09000BD00246294617
:100D0000684600F05EFC09E078000020D018002062
:100D100034190020D5E90001CDE9000169464046BB
:100D200000F037FDD0B1E00702D0B5F9184013E06C
:100D3000BDF80400401CA8F8000001260EE0204683
:100D4000FFF736FC07466A4641462046FFF7C7FFD5
:100D500000B10126B7F91A40002CF0D1B5F91A00FC
:100D60000028C2D13046BDE8FC872DE9FC410E4683
:100D7000904630E0FFF71CFC848B0546A00728D581
:100D80005FEA080005D002462946684600F019FCD3
:100D900003E0D5E90001CDE900016946304600F0E5
:100DA000F8FCB0B1E00702D0B5F918400FE0BDF88B
:100DB0000000401EB0800CE02046FFF7F9FB07461C
:100DC0006A4631462046FFF7D0FFB7F91A40002C9B
:100DD000F2D1B5F91A000028CCD17EE700224A8072
:100DE0000A8082880388D21A8A80C2884088101AB2
:100DF000C88070477FB50D46060023D0FFF7D8FBAB
:100E0000848BA1071ED5D0E90012CDE9001255B19F
:100E1000296802916968039102A9FFF781FD02A97F
:100E2000684600F0B1FB31466846FFF7A3FD002895
:100E300008D040F601000440012C04D06946304639
:100E4000FFF73CFD7FBD6846FFF72BFE7FBD00210D
:100E5000D0E72DE9F84FFC4C0746DDE90A65A0898B
:100E6000DDF834B0884691469A4605432EB9A088ED
:100E700018B104F10A00B0F90060701C0DD0DEB1A9
:100E80003046FFF795FBB0F90020B0F90210174487
:100E90008844B9F1000F02D006E000260CE0B0F95A
:100EA00004309A1A02F10109BAF1000F04D1B0F925
:100EB0000600401A00F1010A0BF1200000B200F018
:100EC000A9FB0090F0B3A088A346401CA080009826
:100ED000FFF76EFB078007EB0901A0F80280491EAF
:100EE000818008EB0A01491EC1800C99016104460A
:100EF000818B43F68F7028400143A183BBF9080022
:100F0000009F58B1FFF754FB80463846FFF750FB6F
:100F1000B8F814108182A8F8147001E0ABF80870DA
:100F200031460098FFF760FDA80602D50098FFF74C
:100F3000DBFDE80705D0DBF8241001F10101CBF857
:100F4000241000E011E0680602D5009801F02CF8AA
:100F5000A80706D5A08B40F00200A0830098FFF7F9
:100F600076FF01210098FFF7FCFD0098BDE8F88F9F
:100F70002DE9FF410AAF0DF1040870CF002700975B
:100F8000A8E87000FFF765FF04B00EE5AF48B0F9C0
:100F90003C0070472DE9FC41AD4ED6E90201CDE998
:100FA0000001306968B3B089401C00B2ADF80000A0
:100FB0007189ADF80210B6F90410884206DD308858
:100FC000ADF80000F089401CADF80200BDF9020048
:100FD000B6F90610884270DC9C4FB7F93C00FFF769
:100FE000E7FA0446BDF90000B6F90010884220D1A6
:100FF000F088ADF80600B088ADF80400B7F93C0001
:101000000FE03088ADF800007088DDE7FFF7D0FA18
:101010000546B0F91A0000226946FFF718FEB5F937
:1010200016000028F2D1B4F9180000226946FFF733
:101030000EFEBDF80000ADF80400B7F93C000CE06E
:10104000FFF7B6FA0546B0F91A0000226946FFF725
:1010500046FE0028EDD1B5F916000028F0D1B4F90C
:10106000180000226946FFF73AFE0028E1D1B6F9E0
:101070000400BDF90010ADF80400884204DADDE98F
:101080000001C6E902019AE7B7F93C000AE0FFF760
:101090008FFA0546B0F91A0000226946FFF765FE8F
:1010A000B5F916000028F2D1B4F9180000226946FB
:1010B000FFF75BFE3069C82801DD00200DE6DDE9A1
:1010C0000001C6E90201012007E670B55E4D6878AF
:1010D000002806D05E4C6069012803DD401E606177
:1010E000002070BD287820B1002028705948006881
:1010F00080472069401C2061FFF74CFF50B1FFF78B
:1011000058FC5548016819B1514808308847287083
:10111000012070BD6069E1E72DE9FF414A4E80463C
:10112000707838B14A4D6869401C6861012804DD57
:10113000012029E7FFF73DFCFAE7444FB7F93C00EF
:10114000FFF736FA04464FF0FF302861B07820B13F
:10115000A0680090E068019006E0A08B800732D57F
:10116000D4E90001CDE900015FEA080003D001469F
:10117000684600F009FAB96B89B10A6802924968B9
:101180000391B6F91210204611B10846FFF710FA84
:1011900002A9FFF7C5FB02A9684600F0F5F9B6F908
:1011A000121019B16846FFF7E5FB60B1B7F93C10C2
:1011B0006846FFF7DFFB30B1DDE90001C5E900015A
:1011C000FFF783FFE0E66869401E68610020DBE608
:1011D00010B500F007FB1D490020886310BDFEB567
:1011E00005460A69888B002A2CD082072AD5164E1C
:1011F000C0044FF00F07B27801F1080402F10102B8
:10120000B2700AD5ADF8045000970294FFF7E0FFE2
:1012100069462846FFF795FC11E02046FFF77CFF62
:101220000BE0ADF8045000970294FFF7D1FF694638
:101230002846FFF786FCFFF748FF0028F1D1B07879
:10124000401EB070FEBD000078000020D0180020C5
:101250002C19002074000020700000202DE9F047B8
:10126000BC4C81460D46B4F93C00FFF7A1F90830AB
:101270002946804600F08DFA00281BD0D4E910677B
:101280004246294605F1080000F09BF9DFF8C882C4
:101290002946A8F81290B5F900002064B5F90200BB
:1012A00060644846FFF79BFF0021A8F81210C4E9CC
:1012B00010670120BDE8F0872DE9F0470446808BD8
:1012C0008007F7D5B4F9186004F108091BE030462F
:1012D000FFF76EF90546808BC043800711D1494660
:1012E000284600F056FA60B1D4E9027080462946DB
:1012F0003046FFF7B3FF10B12846FFF7DDFFC4E922
:101300000278B5F91A60002EE1D1D3E770B54468D0
:10131000B0F9002040F60101A08B0840012803D05D
:1013200021461046FFF75BFF8B48406A002823D018
:101330002046FFF7C1FFB4F91660B4F91A4019E06E
:101340002046FFF735F90546808BC043800703D15F
:1013500029462046FFF782FF2846FFF7ADFFB5F983
:101360001A40002CECD13046FFF722F9B0F91A40B0
:10137000B0F91660002EF4D170BD10B5764C206A1D
:1013800000B180477548006808B1804710B9FEF782
:1013900046FF08B1012010BD607820B1E08810B18F
:1013A00000F092F8F6E7002010BD10B5002400E030
:1013B0000124FFF7E2FF0028FAD1204610BD70B5E6
:1013C000B0F90450044686682846FFF7F1F8024653
:1013D0002068172811D004DC0E2810D0142809D159
:1013E00004E0222811D0282804D111E0314610460B
:1013F000FFF7F4FC0020A06070BDA56070BD214621
:101400002846BDE8704000F07BBE6FF07040F2E708
:101410002846BDE870401AE510B5044600680E285D
:1014200002D00F2814D108E0A0684168012913D127
:101430000068BDE81040FEF7DEBE47486FF070411F
:101440001C300068884203D0FEF722FFFFF7D2F974
:101450002046BDE81040B2E710BD3F49012048706A
:1014600070473D490020487000F01DBD3EB53A4C24
:10147000E078002827D137492081A0828863E08066
:10148000A08037490222CDE9002140F6FF72029088
:1014900013460146FFF76CFD04F10A0504F11C0236
:1014A00028806FF070411160FFF7D1FC2D4800F0EB
:1014B0009DFD2D4800F09AFDB5F90000FFF714FBE3
:1014C00001206070E0703EBD2DE9F041DFF88880BA
:1014D00096B00125B8F914700FB9B8F908706846CC
:1014E00000F074F92BE03846FFF762F80446808B71
:1014F0000026800621D5206978B1394604F108001C
:10150000FFF738FA48B1ADF8507038461594FFF738
:10151000EBFA14A8FFF7FAFE0126A08B20F02000BA
:10152000A083810402D540F00401A183B8F806101D
:10153000491EA8F8061006B16D1EB4F914700FB15B
:10154000002DD0D1A8F81470684600F043F916B009
:10155000BDE8F081D0180020780000206400002051
:1015600019140008AC000020B40000200148B0F9B4
:10157000000070478200002010B5002803D0FFF75C
:1015800017F8B0F9160010BDB0F90030B1F900201D
:10159000934200DA0280B0F90230B1F9022093429E
:1015A00000DA4280B0F90430B1F90420934200DD42
:1015B0008280B0F90620B1F906108A4200DDC180B0
:1015C000704770B5B1F90030B2F90040A34200DDB8
:1015D0001C460480B1F90250B2F902309D4200DC91
:1015E0001D464580B1F90460B2F904309E4200DC2A
:1015F00033468380B1F90610B2F90620914200DD2E
:101600001146C180A34201DBA94201DA002070BD6E
:10161000012070BD70B50546FEF7C6FF040005D079
:10162000FEF7C6FF2A46002100F096FE204670BD58
:101630002DE9FC47050054D0FFF770F8364E0746F9
:10164000B6F92290FFF78FF8B18C8046A1EB080025
:10165000B0843BE047F6FF71284600F090F98246DF
:101660000146284600F0A3F90446B08D00F00300BF
:1016700001283CD0022836D00020718C6A46081A16
:101680007084ADF80000611E0844ADF80400B08C11
:10169000ADF80200791E0844ADF806005146284610
:1016A00000F09CF9BDF80200B0845146284600F0D5
:1016B0000AF9054428780A281BD00D2819D0BDF84E
:1016C000000020447084287818B16D1C2878002808
:1016D000C0D1B18C01EB0800B084B08D20F00300C4
:1016E000B085BDE8FC8704EBD4704010C5E7204608
:1016F000C3E7B08D00F0030001280AD0022808D00B
:10170000308C708428780A28DDD1B08C3844B084BD
:10171000D9E7A6F82290F5E7D018002010B50028E8
:1017200021D009B30AB3B1F90030B2F90040A342A5
:1017300000DD23460380B1F90230B2F90240A34232
:1017400000DD23464380B1F90440B2F904309C42E5
:1017500000DD23468380B1F90610B2F906209142DC
:1017600000DC1146C18010BD11460A68026049685C
:10177000416010BD00280BD003880B440380838890
:1017800019448180418811444180C1881144C1803D
:101790007047B0F90220B1F906309A4213DCB1F972
:1017A0000220B0F906309A420DDCB0F90020B1F900
:1017B00004309A4207DCB1F90010B0F9040081420C
:1017C00001DC0120704700207047000050220449CE
:1017D00001F035BA01465022014801F030BA00004C
:1017E000D018002010B50020FEF752FD6FF07F40AA
:1017F000FEF750FD0120FEF73FFD002000F012F83B
:10180000002000F017F8002000F0EEFD0448FEF77D
:1018100043FDBDE81040002000F0E8BDE2E7000015
:10182000AC490008024A0146B2F92C009185704784
:10183000D0180020024A0146B2F92A0051857047AB
:10184000D018002030B40D4C2268821A01D5C2F1A4
:1018500000026368CB1A00D55B421A44022A04DDF9
:10186000C4E9000130BC00F0C9BD30BC7047034A78
:10187000136803605068086070470000A4000020EF
:101880002349C969496808472149C969096808475E
:101890001F4AD269D26810471D49C969896808473B
:1018A0002DE9F0411A4E04460568F06901682846A2
:1018B00088470746F06941682846884728442060E1
:1018C0003846BDE8F0812DE9F04106460D4600247A
:1018D0000F4F05E0F86941683046884706440444E4
:1018E0006D1EF7D22046ECE72DE9F04100250646B3
:1018F0000F462C46DFF8188006E0D8F81C10301987
:101900004968884704446D1CA742F6DC2846D8E79E
:10191000D0180020007870470120704701207047E0
:1019200001700120704703490148C86170470000F9
:10193000CC490008D0180020F7B54E4D0C46114692
:10194000286918B1FFF725FF002806D0A8690069AB
:1019500020B18268214600989047FEBD464E0BE0BC
:101960006846FFF79DFF0746A86901683846884723
:10197000316809B138468847641EF1D5FEBD73B59C
:101980000D46009A002482B13A488069006950B13E
:101990004368104698477CBD6846FFF781FF20B139
:1019A0000A2802D0641CAC42F6DB20467CBD73B52D
:1019B0000C46009A00257AB12E488069006948B12A
:1019C0000368104698477CBD6846FFF769FFFEF73D
:1019D000DDFE0544641EF7D528467CBD7CB5054672
:1019E00026480E46006868B10020FFF795FB06E028
:1019F0006A4631462846FFF79FFFFFF766FB00283F
:101A0000F6D17CBD106800901A4C50680190BDF86A
:101A10000010206C0144ADF80010BDF80220616C8C
:101A20000A44ADF80220BDF804201044ADF80400CB
:101A3000BDF806000844ADF806006846FFF76CFBE9
:101A40000CE0BDF800006084BDF80200A0846A4686
:101A500031462846FFF770FFFFF737FB0028F0D12B
:101A6000608C216C401A6084A08C616C401AA08448
:101A70007CBD0000D0180020680000206C00002011
:101A80002DE9F04FDFF858B18BB04FF0FF36BBF9BE
:101A900022200692DBF81820BBF924A09469A189C2
:101AA000884206D3E389834203D3451AD4F80080E1
:101AB00013E0D4E9018179B10B8898420CD34D88A9
:101AC000854209D3C01A496880B201EB8000B0F9A1
:101AD0000050B0F9026000E03546681C5BD0107D14
:101AE000A17C00FB01F9217CCDE90710BBF92A702C
:101AF000384600F089F8C0B2099005FB0980A17C46
:101B00000125CDF814B00295CDE90310DBF81800DB
:101B10000DF1180CC17D807DCDE90001BCE80D0000
:101B2000514600F0D2F8701C17D047F0020000F0C8
:101B30006BF8A27C06FB0981CDE9041BCDE90252BA
:101B4000DBF818000DF1180CC17D807DCDE9000196
:101B5000BCE80D00514600F0B8F8DBF818005D460F
:101B6000417D007D814213D9022F11D087F00400FE
:101B700000F04AF8A869037D427D857D03FB02A140
:101B800002EB0A03DDE9060202FB050200F07FF822
:101B9000099800F039F8BBF82200627C1044ABF8D9
:101BA00022000BB0BDE8F08F0D4880698069407C51
:101BB000704702200880704780698289914202D371
:101BC000C2898A4207D2806838B102888A4204D822
:101BD0004088884201D301207047002070470000F0
:101BE000D018002010B50446012000F095F9CD4929
:101BF00021F8104010BD10B50446002000F08CF90B
:101C0000C84921F8104010BDC64910B50246087BEE
:101C100080EA02035B0703D50B884C880C804B805D
:101C20000A7310BDBF4AB2F906308B4213DCB2F919
:101C30000A308B420FDBB2F9043083420BDCB2F97D
:101C40000830834207DB137BDB0701D001F0FCBDCA
:101C5000528801F0F5BD704730B4B24CB4F906308B
:101C60008B4212DCB4F90A308B420EDBB4F904303B
:101C7000834200DD1846B4F90830934200DA1A4670
:101C8000824202DB30BC01F083BD30BC704730B40F
:101C9000A44DB5F90440844200DD2046B5F9084062
:101CA000944200DA22468242EFDBB5F906408C42CC
:101CB00000DD2146B5F90A409C4200DA23468B42FA
:101CC000E3DB30BC01F098BDDFE72DE9F04F0546BE
:101CD000954887B09146149C00689846002790B1BB
:101CE000DDE91263159ACDE90263CDE90442DDE92D
:101CF0001023CDE90023046843464A462846A047FE
:101D000007B0BDE8F08FDDE9100301EB080605EB35
:101D10000902761E521E1843012807D01298C0F1FE
:101D20000800CDE9011000200390B9E07D4BB3F924
:101D30000670781A002808DDA8EB0008B8F1000F3B
:101D4000DEDD3946139F00FB0744B3F90A00301A61
:101D5000002804DDA8EB0008B8F1000FD0DDB3F9CE
:101D60000800101A002801DDA9EB0009B3F90400EE
:101D70000022A84233DD421B1298A9EB0209042875
:101D80001FD004DC01280CD0022828D111E0654BBB
:101D9000B3F904305B1B2B4408281AD010281ED13D
:101DA00019E022F0070004EBE204054402F0070208
:101DB00015E022F0030004EBA204054402F0030244
:101DC0000DE022F0010004EB6204054402F0010280
:101DD00005E0144401E004EB42041D460022B9F181
:101DE000000F8DDD1598139BCDE90320CDE901345B
:101DF0001298009043464A46284601F058FC7FE777
:101E000011990198084406904649401E0090B1F986
:101E1000062082423CDC0846B0F90A100198814253
:101E200036DB0026A346AA46304604962EE016B9B5
:101E30001BF8017B0826029937FA01F0129907FA7C
:101E400001F7FFB2A6EB010603D13649097B8907EA
:101E500017D4344949880591159921B131F81010EA
:101E60003048418001E02F494880109950460AEBE4
:101E70000102DDE90031521EFFF709FF29490598EB
:101E8000488004981099401C04908A444845CEDB51
:101E90000398401C039006980190139804440398FB
:101EA0004045ADDB2CE71F48001D00F045B810B5DC
:101EB000FFF7F9FF01F0C0FC044600F04FFD0420DD
:101EC000FFF7A2FE40F6FF72002113460846FFF717
:101ED000DEFE0020FFF798FE01F0B0FC204610BDAA
:101EE00000F024B800F024B80E4910B54A6B8242C5
:101EF00005D04863FFF7F4FFBDE810407BE610BD56
:101F0000084910B50A6B824205D00863FFF7E8FF65
:101F1000BDE8104066E610BD0249097B490700D5BF
:101F2000401E7047D01800206C00002000F006BA58
:101F300000F018BD00F00DBA00210180418040F290
:101F40008F118180EF21C180704700001CB50446CD
:101F50006846FFF7F1FF6A4621460248FFF731FB6A
:101F60001CBD0000D418002070B50C46002550B1EF
:101F70004CB1FEF71DFBB0F91600A04201D10125BE
:101F800001E00028F5D1284670BD884201D101202A
:101F90007047E9E710B50124FEF70AFB808BC00605
:101FA00000D50024204610BD2DE9F04107001AD0CD
:101FB000FEF7FEFA0546384600F0EEFC040012D0AB
:101FC0003846FFF7D9FAFEF7F3FA06462046FEF741
:101FD000EFFA698B4183308B688337832846BDE8ED
:101FE000F041FEF75EBDBDE8F08100000B490A68D4
:101FF000026008607047094B1968002905D000226B
:10200000814206D108680AB1106070470028186044
:1020100070470A4609680029F2D1704790000020F5
:10202000FEF7A7BD0EB5262202910092694600F088
:1020300067F80EBD00B50A4A03460020B2F9002039
:1020400085B0002A0AD00E20009003A80290CDE9A6
:1020500003316946104600F0B2FC012005B000BD16
:1020600088000020838B9B0711D5B0F900308B428C
:102070000DDCB0F904308B4209DBB0F9021091425B
:1020800005DCB0F90600904201DB0120704700201A
:1020900070472DE9F0470F46904699460546FEF7F2
:1020A00087FA04464A464146FFF7DCFF002814D071
:1020B000B4F918400DE02046FEF77AFA06464B4682
:1020C000424639462046FFF7E4FF00B10546B6F91F
:1020D0001A400CB1BC42EED12846BDE8F08702465A
:1020E00006480B460021B0F90000D2E713460A4625
:1020F00001460248B0F90000CBE700008000002054
:1021000070B50C00054609D0FFF736FA002805D057
:10211000E5802146BDE87040FEF713BD70BD0000AC
:1021200070B50E4E04460D46B6F90000A04201D02F
:1021300000F006F80A483480057070BDAFF30080E7
:102140003EB5064CB4F90000002806D018210091D5
:102150006946FEF7F6FC002020803EBD8600002088
:10216000A000002070B5714C0546A08848B1B4F9B4
:1021700004102846FFF7F8FE18B9B4F90400A84285
:1021800001D1012070BD002070BD3EB504460D4652
:1021900007C98DE807006946204600F020FC0D20A5
:1021A000ADF80640009008E02046FFF7E5F904008E
:1021B00003D06946029500F012FC2046FFF730FF7D
:1021C0000028F1D13EBD70B58C680D4606465CB165
:1021D000FEF7EEF9B0F900202168891A2160B0F904
:1021E00002006168081A606029463046BDE8704008
:1021F000CBE72DE9F0418EB00027684600F0D2F819
:1022000003A8FFF7F3FE4A4C00992068884208D1E2
:1022100060680199884204D1207A9DF808108842AC
:102220007DD0DDE9000100F0CEF94248B0F90000B0
:1022300018B9DDE90001FFF752FFADF81000BDF954
:102240001000FFF78FFF002866D0207A9DF8081055
:10225000884220D0BDF81000E8B1BDF91000FEF7AB
:10226000A7F99DF808108DF83410217A8DF83510F3
:10227000B0F900200099891A0B91B0F90200019978
:10228000081A0C900BA8079011200590BDF91000BA
:1022900005A900F0A4FB217A9DF8080001433BD07A
:1022A000224D0C21012708350591B5F90410BDF91F
:1022B000102000260DF12008914212D0A98881B18A
:1022C00008B1079607E020680890606809908DF8CB
:1022D0002860CDF81C80B5F9040005A9FFF773FF4D
:1022E000AE80BDF81000B8B19DE8070008AB07C389
:1022F0009DF8280018B1BDF81000A88005E00E4830
:10230000007808B1FFF71AFFAE80BDF91000CDF8D4
:102310001C8005A9FFF757FF9DE8070007C403A825
:10232000FFF769FE0EB03846BDE8F081AC00002032
:102330002019002086000020A0000020C0F3C40166
:10234000C0F38522C0F3C44000EB421000EBC12073
:1023500070474FF6FF70704710B502E000F8011BA0
:10236000521E0AB18307F9D1930817D001EB01443B
:1023700002F0030204EB042405E00460446084607E
:10238000C46010301B1F042BF7DA01E010C05B1E85
:10239000002BFBD102E000F8011B521E002AFAD1EB
:1023A00010BD00000D49D1E9002389680260C0E931
:1023B0000131007A002800D00120704710B509498A
:1023C0000446074808600C222146044800F084FBBC
:1023D000002802D001480ECC0EC010BD44190020C8
:1023E000F321000864000020FFF70EBC024A0146FA
:1023F000907D917570470000D0180020074A002892
:1024000006DB002904DB01231372C2E9000101E0AD
:1024100000201072014800F041BB0000501900205C
:10242000F94B30B4B3F902408C4210DCB3F90640EA
:102430008C420CDBB3F90040844208DCB3F9043071
:10244000834204DBF14B1B685B6A30BC184730BC2D
:102450007047ED4AB2F902308B420DDCB2F906301A
:102460008B4209DBB2F90030834205DCB2F904206B
:10247000824201DB01F0DCB900207047E24A10B56E
:10248000203A9068002813D041681369591A02F164
:102490001803198084685269121B5A8004682488C2
:1024A0002144491E9980006840881044401ED8800D
:1024B00010BDD54910B52039097851B128B1D2499C
:1024C0000839FFF766F9002802D000F085F90120ED
:1024D00010BD002010BD00F08AB9CB4920398878A2
:1024E000401E10F0FF00887001D100F080B97047E5
:1024F000C54920398878421C8A70002801D100F033
:102500006BB970472DE9F047BF4F0646203FB868CA
:10251000814686422ED03568E8680468042C00DDC8
:102520000424DFF8E48208F1080807E0E86880681E
:1025300050F82400FFF7D4FC28F81400641EF5D2EC
:1025400000F04AF92888698848434400F8688442C2
:1025500005D0B7F90400FEF773F80020B88020B268
:10256000FFF758F8B88001207870BE60FFF786FF4B
:1025700000F03DF94846BDE8F08710B500F02CF9B1
:10258000A149002020394870A1490860A14908608C
:1025900010BD10B59C48FFF7CFFC00F01DF99A481C
:1025A000012120389A4A41709B491160994A9B4900
:1025B0001160806818B1BDE8104000F018B9BDE89E
:1025C000104097489EE72DE9F34F8F4B8FB0203B8B
:1025D000B3F9040000286FD01A690F998A4201D01C
:1025E000012100E000215C69109A944201D001228F
:1025F00000E0002211435FD0834920394978002947
:1026000074D0814C203CA16809680B91FDF7D0FF84
:102610000A90A0680F9A0068018809912369A2EBCB
:1026200003084FF0FF32B8F1000F09DD01230593D5
:102630000023CDE90031491ECDF81080069108E055
:10264000491E0592CDE900120021049100994144F0
:10265000069110996369A1EB0309B9F1000F09DD37
:1026600001210391408807900025401ECDF8089075
:1026700008908FE0039245886D1E0020029005EBC4
:102680000900CDE9072085E0029805EB090785429E
:1026900004DB0898854201DC012000E000200C905A
:1026A0000298874204DB0898874201DC012000E0A1
:1026B00000200D90009C68E07AE00A9804EB080680
:1026C00000EB440109982A46684301EB400B214680
:1026D0000B9800F092F982460498844207DB069832
:1026E000844204DC0C9810B1012001E056E0002087
:1026F00004998E4206DB06998E4203DC0D9909B1DE
:10270000012100E000210E91BAF1000F14D038B180
:10271000A5EB0902A4EB08010B9800F06EF958B97B
:102720003948BBF800200838B0F90210B0F90000B1
:1027300029442044FFF774FE0E9838B10A9800EB44
:1027400046010998784331F810000AE02E4808380D
:10275000B0F90210B0F9000039443044FFF779FEB7
:1027600080B2ABF800005FEA0A000CD000F023F85A
:1027700082B225480838B0F90210B0F90000394497
:102780003044FFF74DFE059804440198844294D1EB
:1027900003980544079885427FF476AF1A480F994D
:1027A000203801611099416111B0BDE8F04F65E634
:1027B00011B0BDE8F08F042804DA1349083131F86C
:1027C000100070471049203989680968C96889680C
:1027D00051F82000FFF784BB10B50B4C203C20784B
:1027E000002803D000F01EF80020207010BD06481D
:1027F00020384178002906D08178002903D10121B1
:10280000017000F045B87047DC000020EC000020AB
:102810007000002074000020B3240008D7240008B2
:10282000F04900082DE9F0473D4CB4F904000028B8
:102830002DD0FDF7BDFE064604F118008046B0F924
:102840000410B0F90020A2468F1AB0F90610B0F9B2
:1028500002207F1C891A01F10109002515E00024DE
:102860000AE0B8F90210B8F9000036F8142029443B
:102870002044FFF7D5FD641CBC42F2DBDAF8080007
:102880006D1C0068008806EB40064D45E7DB72E6EC
:102890002DE9F0472249B1F9040000283ED08968AB
:1028A000D1F800A0FDF784FE1D4F06461837B7F992
:1028B0000400B7F90010401A00F10108B7F906004A
:1028C000B7F90210401A00F10109002524E00024A4
:1028D0001BE0B7F902004119B7F900002044FFF7E7
:1028E000B8FD26F814002A462146504600F085F827
:1028F00050B1FFF760FF0246B7F902004119B7F97E
:1029000000002044FFF78CFD641C4445E1DBBAF86D
:1029100000006D1C06EB40064D45D8DB2BE60000A1
:10292000BC0000202DE9F041002806D086681EB1C9
:102930000568B5F5807F02DD0020BDE8F081002448
:10294000074F06E056F82400FFF7CAFA27F81400EC
:10295000641CAC42F6DB0248EFE7E3E77047000097
:102960005C1900201F2300F01F02C0F3451110B5B1
:10297000C0F3C420C0EB0020C1EB01213F24B0FB19
:10298000F3F0B1FBF4F1C2EB0222B2FBF3F200EB85
:10299000012000EB024010BD70B5054600F092F832
:1029A00009E0AC4201D1002407E0FDF701FEB0F9D7
:1029B0001A00A84201D00400F3D1204670BD70B5C2
:1029C0000C460546FDF7F4FDA5800269204612B1CC
:1029D000BDE870401047BDE87040FEF7F0BC70B530
:1029E0000D460446FFF7D6FA002805D029462046B2
:1029F000BDE87040FFF7E3BF70BDC388042B28D04B
:102A000004DC012B08D0022B04D113E0082B2DD0BD
:102A1000102B31D00020704783888068534303EB2C
:102A2000D10201F00701805CC1F10701C84000F04C
:102A30000100704783888068534303EB9102805CF8
:102A4000062202EA4101C1F10601C84000F003007C
:102A5000704783888068534303EB5102C907805C49
:102A600002D000F00F00704700097047838880682B
:102A700002FB0311405C704783888068534303EB7B
:102A800041010844008870470D4910B591E81C00C9
:102A90001CC0087A002800D0012010BD10B50446E3
:102AA0000C22074900F018F8002808D0044894E8E0
:102AB0000E000EC02046BDE81040FFF77FBC10BDE1
:102AC0005C1B002010B5FEF757FD002803D0FDF772
:102AD0006FFDB0F9180010BD40EA010310B59B0767
:102AE0000FD1042A0DD310C808C9121F9C42F8D078
:102AF00020BA19BA884201D9012010BD4FF0FF3029
:102B000010BD1AB1D30703D0521C07E0002010BD3E
:102B100010F8013B11F8014B1B1B07D110F8013BCA
:102B200011F8014B1B1B01D1921EF1D1184610BDAB
:102B3000032A40F2308010F0030C00F0158011F8E9
:102B4000013BBCF1020F624498BF11F801CB00F8C1
:102B5000013B38BF11F8013BA2F1040298BF00F815
:102B600001CB38BF00F8013B11F0030300F0678090
:102B7000083AC0F0088051F8043B083A51F804CBF9
:102B8000A0E80810F5E7121D5CBF51F8043B40F8BF
:102B9000043BAFF30080D20724BF11F8013B11F8CA
:102BA00001CB48BF11F8012B24BF00F8013B00F80E
:102BB00001CB48BF00F8012B7047431A28BF9A4247
:102BC0007FF6B6AF032A1044114440F2268010F07D
:102BD000030F1EBF11F8013D521E00F8013D10F019
:102BE000030F7FF4F6AF11F0030300F07080083A92
:102BF000C0F00B8051F8043D083A51F804CD40F87C
:102C0000043D40F804CDFFF7F3BF121D5CBF51F83F
:102C1000043D40F8043DAFF30080D20724BF11F813
:102C2000013D11F801CD48BF11F8012C24BF00F877
:102C3000013D00F801CD48BF00F8012C704710B5E8
:102C4000203AC0F00B80B1E81850203AA0E81850A4
:102C5000B1E81850A0E81850BFF4F5AF5FEA027C65
:102C600024BFB1E81850A0E8185044BF18C918C0D4
:102C7000BDE810405FEA827C24BF51F8043B40F875
:102C8000043B08BF7047D20728BF31F8023B48BF5A
:102C900011F8012B28BF20F8023B48BF00F8012B98
:102CA0007047704770477047431A28BF9A427FF6B3
:102CB000C6AF104410F0030F11441EBF11F8013DC0
:102CC000521E00F8013D10F0030F7FF4F6AF103AEA
:102CD000C0F00A8010B531E91850103A20E91850B8
:102CE000BFF4F9AFBDE81040530724BF31E9081025
:102CF00020E9081044BF51F8043D40F8043D12F0AB
:102D0000030F08BF7047D20728BF31F8023D48BF04
:102D100011F8012C28BF20F8023D48BF00F8012C13
:102D20007047754600F028F8AE46050069465346E0
:102D300020F00700854618B020B5FDF731FABDE850
:102D400020404FF000064FF000074FF000084FF012
:102D5000000B21F00701AC46ACE8C009ACE8C009A3
:102D6000ACE8C009ACE8C0098D4670470446AFF333
:102D700000802046FDF701FA00487047681B0020DC
:102D80007047000001491820ABBEFEE72600020094
:102D900070B54FF0C0452A242C800B4C060A2680C3
:102DA000C0B22080080A2080C8B220802B20288052
:102DB000100A2080D0B22080180A2080D8B220804B
:102DC0002C20288070BD0000000002602DE9F04139
:102DD000064610481C461546007B0F46800708D55E
:102DE00014E02A88B9B2B0B200F0D8FA641EAD1C63
:102DF000761C002CF5DCBDE8F0812A881AB1B9B246
:102E0000B0B200F0CBFA641EAD1C761C002CF4DCD2
:102E1000F1E70000D01800202DE9F0470546DDE974
:102E200008400F46B0F80090B0F802807748167856
:102E30009246007B10F0030103F0070004D0012943
:102E400012D0022918D107E0082815D2DFE800F0D7
:102E500067727E8A97A3AFBB08280DD2DFE800F027
:102E60000C151F29333D4751082805D2DFE800F033
:102E7000BBBDBFC1C3C5C7C9300604D5B9B2A8B26E
:102E8000424600F08BFA641E70D0700605D5681CAF
:102E9000B9B280B2424600F081FA641E66D0B00634
:102EA00005D5A81CB9B280B2424600F077FA641E7C
:102EB0005CD0F00605D5E81CB9B280B2424600F0FD
:102EC0006DFA641E52D0300705D5281DB9B280B204
:102ED000424600F063FA641E48D0700705D5681DAD
:102EE000B9B280B2424600F059FA641E3ED0B00733
:102EF00005D5A81DB9B280B2424600F04FFA641E53
:102F000034D0F00705D0E81DB9B280B2424600F0D7
:102F100045FA641E77D01AF8016F0835ACE7300621
:102F200001D5424600E04A46B9B2A8B200F036FAEE
:102F3000641E68D0700601D5424600E04A46681C0F
:102F4000B9B280B200F02AFA641E5CD0B00601D596
:102F5000424600E04A46A81CB9B280B200F01EFA10
:102F6000641E50D0F00602D5424601E04BE04A46CE
:102F7000E81CB9B280B200F011FA641E43D03007E9
:102F800001D5424600E04A46281DB9B280B200F0A1
:102F900005FA641E37D0700701D5424600E04A4664
:102FA000681DB9B280B200F0F9F9641E2BD0B007E9
:102FB00001D5424600E04A46A81DB9B280B200F0F1
:102FC000EDF9641E1FD0F00701D0424600E04A46EA
:102FD000E81DB9B280B200F0E1F9641E13D01AF80E
:102FE000016F08359BE7641E0DD0641E0BD0641E74
:102FF00009D0641E07D0641E05D0641E03D0641E71
:1030000001D0641EEFD1BDE8F0870000D018002089
:103010002DE9F04706467848DDE90849007B0F4670
:10302000157890465FEA09014FEA807078D0002851
:1030300003F0030005DAC0B3012843D002285DD1B4
:103040004EE020B101280BD002281FD113E0A909BE
:10305000B0B239F81120B9B200F0A0F9641E6FD0F7
:10306000C5F30111701C39F81120B9B280B200F01B
:1030700095F9641E64D0C5F38101B01C39F81120A4
:10308000B9B280B200F08AF9641E59D005F003018C
:10309000F01C39F81120B9B280B200F07FF9641E3B
:1030A0004ED018F8015F361DD1E7FFE715F0C00FCD
:1030B00006D0A909B0B239F81120B9B200F06EF902
:1030C000641E3DD015F0300F08D0C5F30111701CFF
:1030D00039F81120B9B280B200F060F9641E2FD027
:1030E00015F00C0F08D0C5F38101B01C39F8112080
:1030F000B9B280B200F052F9641E7AD0A80708D0A5
:1031000005F00301F01C39F81120B9B280B200F0CB
:1031100045F9641E6DD018F8015F361DC6E7FFE75C
:10312000002803F0030005DA88B301283AD002280A
:1031300050D143E028B101280AD002281AD110E06A
:1031400057E0AA09B9B2B0B200F028F9641E50D015
:10315000701CB9B280B2C5F3011200F01FF9641EF1
:1031600047D0B01CB9B280B2C5F3810200F016F9A5
:10317000641E3ED0F01C05F00302B9B280B200F02C
:103180000DF9641E35D018F8015F361DD9E7FFE749
:1031900015F0C00F04D0AA09B9B2B0B200F0FEF821
:1031A000641E26D015F0300F06D0701CB9B280B264
:1031B000C5F3011200F0F2F8641E1AD015F00C0FDE
:1031C00006D0B01CB9B280B2C5F3810200F0E6F8B7
:1031D000641E0ED0A80706D0F01C05F00302B9B299
:1031E00080B200F0DBF8641E03D018F8015F361DD2
:1031F000CEE7BDE8F0870000D01800202DE9F047A9
:1032000005464248DDE90869007B88461478174680
:103210005FEA09014FEA80703ED000284FEAC37090
:1032200001DAD8B126E048B92109A8B239F811204D
:103230001FFA88F100F0B2F8761E64D004F00F0196
:10324000681C39F811201FFA88F180B200F0A6F846
:10325000761E58D017F8014FAD1CE5E7200907D0BE
:103260002109A8B239F811201FFA88F100F096F868
:10327000761E48D0200709D004F00F01681C39F8E9
:1032800011201FFA88F180B200F088F8761E3AD03B
:1032900017F8014FAD1CE1E700284FEAC37001DACF
:1032A000B8B120E038B922091FFA88F1A8B200F0BD
:1032B00075F8761E27D0681C04F00F021FFA88F1FB
:1032C00080B200F06BF8761E1DD017F8014FAD1CD0
:1032D000E9E7200905D022091FFA88F1A8B200F019
:1032E0005DF8761E0FD0200707D0681C04F00F028F
:1032F0001FFA88F180B200F051F8761E03D017F85B
:10330000014FAD1CE5E7BDE8F0870000D0180020B4
:103310002DE9F04106462048DDF818801C46007B68
:10332000154680070F4640461AD450B915E0287854
:10333000B9B238F81020B0B200F030F8641E6D1C3D
:10334000761C002CF3DCBDE8F0812A78B9B2B0B26B
:1033500000F024F8641E6D1C761C002CF5DCF2E7EE
:1033600058B916E0287828B138F81020B9B2B0B2B0
:1033700000F014F8641E6D1C761C002CF2DCE2E7F1
:103380002A781AB1B9B2B0B200F008F8641E6D1C08
:10339000761C002CF4DCD6E7D018002010B50B46C4
:1033A00014461A460146FFF7F3FC0248210A018041
:1033B000048010BD000002607047000010B54FF49B
:1033C0000054204600F022F800280BD06100064887
:1033D00000F082F80549012008702046BDE8104041
:1033E00000F00EB810BD00000008014009000020E8
:1033F000022000F005B87047704770477047000022
:10340000014908607047000014040140064A014663
:1034100000201268044B0A4014331B680B4202D090
:10342000002A00D001207047000401407047F0B529
:10343000CC78002204F00F03E40601D58C782343F6
:103440000C784FF00F0C14F0FF0F4FF0010E1BD053
:1034500005680E880EFA02F42640A64210D19600A6
:103460000CFA06F725EA070703FA06F5CE783D437E
:10347000282E02D0482E02D002E0446100E0046110
:10348000521C082AE5D305600A88FF2A1CD9446823
:10349000002202F108060EFA06F50E882E40AE4212
:1034A0000ED196000CFA06F7BC4303FA06F7CE7865
:1034B0003C43282E00D14561CE78482E00D10561CD
:1034C000521C082AE5D34460F0BD024600209268F1
:1034D0000A4200D001207047416170470161704786
:1034E0007047704770B586B00024D02000F0D4FB40
:1034F00000F00EFA6D46D02000F0CEFB641CE4B262
:1035000000F006FA45F82400052CF4D30021012030
:10351000C1F105060BE005EB800355F820205C683F
:10352000A24202DD5A6045F82040401CC0B28642EB
:10353000F1DC491CC9B20429E9D3DDE901010844E1
:10354000039906B00844032190FBF1F070BD70B5FB
:1035500086B00024902000F09FFB00F0D9F96D4662
:10356000902000F099FB641CE4B200F0D1F945F81A
:103570002400052CF4D300210120C1F105060BE045
:1035800005EB800355F820205C68A24202DD5A60FA
:1035900045F82040401CC0B28642F1DC491CC9B24B
:1035A0000429E9D3DDE901010844039906B0084480
:1035B000032190FBF1F070BD70470000F8B506469E
:1035C0004FF0C0442A200D462080300A00F098FBBE
:1035D000F0B200F095FB2B202080280A00F090FB31
:1035E000E8B200F08DFB0020ADF80000ADF800005F
:1035F000ADF80000ADF80000ADF800002E212180EC
:10360000ADF80000ADF80000ADF80000ADF8000026
:10361000ADF80000ADF8000009490A88ADF80020B7
:10362000ADF80000ADF80000ADF80000ADF8000006
:10363000ADF800000888ADF80000BDF80000F8BD46
:1036400000000260704770477047704738B500212E
:103650004FF0006000F036F94FF4A06000F028F958
:103660001C208DF8000000248DF801408DF80240E8
:1036700001258DF80350684600F0E8F807208DF822
:1036800000008DF801408DF802408DF80350684627
:1036900000F0DCF829208DF800008DF801508DF83D
:1036A00002408DF80350684600F0D0F838BD2DE98F
:1036B000FF4F83B01D46DDE91007DDE9124BDDF851
:1036C000509092460E46042830D005DC012809D0DF
:1036D000022818D1002025E0082839D0102812D15E
:1036E000002051E000200BE0CDE900A908EB060125
:1036F0005B4622460398FFF78FFB3C4408F101002C
:103700008046A842F0DB07B0BDE8F08FCDE900A904
:1037100008EB06015B4622460398FFF779FC3C4420
:1037200008F101008046A842F0DBECE700200BE046
:10373000CDE900A908EB06015B4622460398FFF796
:103740005DFD3C4408F101008046A842F0DBDAE769
:1037500000200BE008EB060153462246CDF800900E
:103760000398FFF7D5FD3C4408F101008046A842CC
:10377000F0DBC8E708EB0601534622460398FFF743
:1037800025FB3C4408F101008046A842F2DBBAE781
:1037900070B514460B4605461A462146FFF7F8FA5F
:1037A000064A641B0020538805491A0A02E00A8071
:1037B0000B80401CA042FADD70BD0000D018002034
:1037C0000000026070B5144613460D460A460146D5
:1037D000FFF7DEFA064A641B0020538805491A0ADF
:1037E00002E00A800B80401CA042FADD70BD0000A0
:1037F000D01800200000026070B5141A15465A1A3D
:10380000521C641C54430A462946FFF7C1FA064A73
:10381000002006495288130A02E00B800A80401CEF
:10382000A042FAD370BD0000D01800200000026052
:1038300089B280B2FFF7C2BE002070477047704760
:1038400089B280B2FFF7AABD7047000030B50F23E0
:10385000C27801780125F2B1144A126801F1E02121
:1038600002F4E062C2F5E062120AC2F10404D3403D
:103870004278A24084781C401443220181F800243D
:10388000007800F01F018D404009800000F1E02029
:10389000C0F8005130BD01F01F008540480980008C
:1038A00000F1E020C0F8805130BD00000CED00E0D8
:1038B0000249084302490860704700000000FA0509
:1038C0000CED00E0024A11400143024801607047DC
:1038D00080FFFF1F08ED00E070470000044A002948
:1038E000D16901D0014300E08143D16170470000FC
:1038F00000100240044A0029916901D0014300E010
:103900008143916170470000001002407047000041
:103910002DE9F041144E00254FF400413046FFF7E9
:10392000DBFD771439463046FFF7D8FD00244FF40D
:10393000804839463046FFF7CFFD41463046FFF715
:10394000C4FD00B10120C4F10B018840284385B2B9
:1039500039463046FFF7C2FD641CE4B20C2CE8D3B4
:10396000C5F30B00BDE8F081000C01404FF40030BE
:10397000FFF746BD70477047704700000CB5002246
:10398000264800920192016841F4803101604FF4B1
:10399000A063016801F4003101910099491C009174
:1039A000019911B900999942F3D10168890333D57E
:1039B000012101911A490A6842F010020A600A685E
:1039C00022F003020A600A6842F002020A604168BB
:1039D000416041684160416841F4806141604168F3
:1039E00021F47C114160416841F4E81141600168B3
:1039F00041F08071016001688901FCD5416821F0C6
:103A000003014160416841F0020141604168C1F336
:103A100081010229FAD10CBD01920CBD00100240B7
:103A2000002002404FF0E02005494161054AF021A5
:103A300082F8141D00218161072202610161704733
:103A40007FFC0A000FE000E002480168491E0160A7
:103A500070470000000000200F4810B5016841F0D9
:103A60000101016041680D4A1140416001680C4A42
:103A700011400160016821F480210160416821F456
:103A8000FE0141604FF41F018160FFF777FF054998
:103A90004FF00060086010BD001002400000FFF809
:103AA000FFFFF6FE08ED00E0704770477047704773
:103AB00070473EB501210846FFF710FF6420ADF8BE
:103AC000040043F63F00ADF800000020ADF806000A
:103AD000ADF802004FF080446946204600F048F8F7
:103AE0000121204600F022F80121204600F028F8AC
:103AF00001221146204600F032F83EBD10B50121EA
:103B00008C07204600F01FF808B1FCF736FC054989
:103B10000A68521C0A602046BDE81040012100F0EE
:103B20000FB800000400002070477047002901888A
:103B300002D041F0800101E021F080010180704756
:103B4000C9430182704702460020138A92890B42C2
:103B500002EA010202D0002A00D001207047002AA8
:103B6000828901D00A4300E08A43828170470000C5
:103B700030B502881B4C1C4DA0420DD0A8420BD082
:103B8000B0F1804F08D0194B984205D0184B98429D
:103B900002D0184B984203D122F070034A881A438E
:103BA000154B984206D0154B984203D022F440732F
:103BB000CA881A4302808A8882850A880285A042C0
:103BC0000AD0A84208D00E4A904205D00D4A904231
:103BD00002D00D4A904201D1097A018601218182E9
:103BE00030BD0000002C01400034014000040040C2
:103BF00000080040000C004000100040001400408D
:103C00000040014000440140004801402DE9F843D4
:103C10004FF43040ADF800000124DFF86C808DF8DF
:103C2000024010258DF8035069464046FFF7FFFB20
:103C30000820ADF80000154F8DF802408DF80350B4
:103C400069463846FFF7F3FB08213846FFF746FC84
:103C5000A003ADF800008DF8024048268DF80360FF
:103C600069464046FFF7E3FBADF800508DF802408F
:103C70008DF8036069463846FFF7D9FB21034046BB
:103C8000FFF72AFCBDE8F883000C0140001001405A
:103C900070477047704770472DE9F047164D07464B
:103CA0004FF4004631462846FFF716FC4FF4005803
:103CB00041462846FFF710FCB14600244646C4F1B1
:103CC000070027FA00F010F0010F4946284602D0FD
:103CD000FFF704FC01E0FFF7FFFB31462846FFF742
:103CE000FDFB31462846FFF7F7FB641CE4B2082CC5
:103CF000E5D3BDE8F0870000000C014070470000EC
:103D00000249020A0A800880704700000000026031
:103D100010B5FFF7A1FE012145F21D00FFF7EAFDF6
:103D2000FFF780FEFFF792FCFFF7C3FEFFF76EFF81
:103D3000002010BD591C0008251C00085468697338
:103D40002075432D475549206C6962726172792054
:103D5000697320666F72206576616C756174696F36
:103D60006E20707572706F7365206F6E6C790A0AC1
:103D70002020202057656C636F6D20746F206F7555
:103D8000722073686F703A20687474703A2F2F74C1
:103D9000696B792E74616F62616F2E636F6D0A00BB
:103DA0000000000000000000000000000000000013
:103DB0000000183C3C3C18181800181800000000BF
:103DC000006666662400000000000000000000009D
:103DD0000000006C6CFE6C6C6CFE6C6C00000000F3
:103DE00018187CC6C2C07C060686C67C181800005F
:103DF00000000000C2C60C183060C686000000003B
:103E00000000386C6C3876DCCCCCCC76000000003E
:103E100000303030600000000000000000000000B2
:103E200000000C18303030303030180C000000002A
:103E3000000030180C0C0C0C0C0C183000000000AA
:103E40000000000000663CFF3C660000000000002F
:103E5000000000000018187E181800000000000084
:103E600000000000000000000018181830000000DA
:103E700000000000000000FE000000000000000044
:103E80000000000000000000000018180000000002
:103E90000000000002060C183060C0800000000026
:103EA0000000386CC6C6C6C6C6C66C380000000026
:103EB00000001838781818181818187E000000002C
:103EC00000007CC6060C183060C0C6FE0000000072
:103ED00000007CC606063C060606C67C0000000004
:103EE00000000C1C3C6CCCFE0C0C0C1E00000000F6
:103EF0000000FEC0C0C0FC060606C67C0000000034
:103F000000003860C0C0FCC6C6C6C67C0000000009
:103F10000000FEC606060C183030303000000000ED
:103F200000007CC6C6C67CC6C6C6C67C00000000B3
:103F300000007CC6C6C67E0606060C78000000009F
:103F40000000000018180000001818000000000011
:103F500000000000181800000018183000000000D1
:103F6000000000060C18306030180C06000000003D
:103F700000000000007E00007E0000000000000045
:103F80000000006030180C060C18306000000000C3
:103F900000007CC6C60C1818180018180000000095
:103FA0000000007CC6C6DEDEDEDCC07C0000000057
:103FB000000010386CC6C6FEC6C6C6C600000000AB
:103FC0000000FC6666667C66666666FC00000000B3
:103FD00000003C66C2C0C0C0C0C2663C0000000019
:103FE0000000F86C6666666666666CF800000000A5
:103FF0000000FE6662687868606266FE000000008D
:104000000000FE6662687868606060F00000000092
:1040100000003C66C2C0C0DEC6C6663A00000000B2
:104020000000C6C6C6C6FEC6C6C6C6C6000000009C
:1040300000003C18181818181818183C0000000048
:1040400000001E0C0C0C0C0CCCCCCC78000000003A
:104050000000E666666C78786C6666E60000000034
:104060000000F06060606060606266FE000000005A
:104070000000C6EEFEFED6C6C6C6C6C600000000DC
:104080000000C6E6F6FEDECEC6C6C6C600000000CC
:1040900000007CC6C6C6C6C6C6C6C67C00000000F8
:1040A0000000FC6666667C60606060F000000000F6
:1040B00000007CC6C6C6C6C6C6D6DE7C0C0E000096
:1040C0000000FC6666667C6C666666E600000000C2
:1040D00000007CC6C660380C06C6C67C0000000026
:1040E00000007E7E5A1818181818183C00000000AE
:1040F0000000C6C6C6C6C6C6C6C6C67C000000004E
:104100000000C6C6C6C6C6C6C66C38100000000091
:104110000000C6C6C6C6D6D6D6FEEE6C00000000AD
:104120000000C6C66C7C38387C6CC6C60000000037
:104130000000666666663C181818183C000000000F
:104140000000FEC6860C183060C2C6FE00000000EB
:1041500000003C30303030303030303C0000000067
:1041600000000080C0E070381C0E06020000000055
:1041700000003C0C0C0C0C0C0C0C0C3C0000000067
:1041800010386CC6000000000000000000000000B5
:1041900000000000000000000000000000FF000020
:1041A0000030180C000000000000000000000000BB
:1041B0000000000000780C7CCCCCCC760000000025
:1041C0000000E06060786C666666667C0000000057
:1041D00000000000007CC6C0C0C0C67C000000001B
:1041E00000001C0C0C3C6CCCCCCCCC76000000004D
:1041F00000000000007CC6FEC0C0C67C00000000BD
:1042000000001C363230783030303078000000004A
:10421000000000000076CCCCCCCCCC7C0CCC780060
:104220000000E060606C7666666666E6000000008E
:1042300000001818003818181818183C0000000062
:1042400000000606000E06060606060666663C0028
:104250000000E06060666C78786C66E60000000044
:1042600000003818181818181818183C000000001A
:104270000000000000ECFED6D6D6D6C60000000036
:104280000000000000DC66666666666600000000EE
:1042900000000000007CC6C6C6C6C67C0000000048
:1042A0000000000000DC66666666667C6060F00008
:1042B000000000000076CCCCCCCCCC7C0C0C1E00DA
:1042C0000000000000DC7666606060F00000000026
:1042D00000000000007CC660380CC67C00000000B6
:1042E0000000103030FC30303030361C0000000050
:1042F0000000000000CCCCCCCCCCCC760000000080
:104300000000000000C6C6C6C6C66C38000000002B
:104310000000000000C6C6D6D6D6FE6C0000000025
:104320000000000000C66C3838386CC60000000081
:104330000000000000C6C6C6C6C6C67E060CF80051
:104340000000000000FECC183060C6FE0000000037
:1043500000000E18181870181818180E0000000029
:10436000000018181818181818181818000000005D
:104370000000701818180E181818187000000000A7
:104380000076DC00000000000000000000000000DB
:1043900000001C30000000000000000000000000D1
:1043A0000000701800000000000000000000000085
:1043B0000010386C00000000000000000000000049
:1043C00000C6C60000000000000000000000000061
:1043D0000076DC000000000000000000000000008B
:1043E00000000000003818181818183C00000000E1
:1043F0000000386C6C6C786C6666666C60C000009F
:10440000102810007CC6C6FEC6C6C6C60000000046
:104410000030483000780C7CCCCCCC76000000001A
:1044200000001E7AD8D8D8FED8D8DADE0000000006
:104430000000FC666666F6F6666666FC0000000034
:104440000000F0607C666666667C60F0000000003C
:104450000000000000CC323E70B0B26C00000000E2
:104460000000D060B0187CC6C6C6C67C0000000044
:104470000000E06060786C6C786060F00000000024
:1044800000007CC6CECED6D6E6E6C67C0000000094
:1044900000000000003A44CED6E644B80000000018
:1044A000000000386CC6C6FEC6C6C6C600000000C6
:1044B000000000FE66626878686266FE0000000028
:1044C0000000003C181818181818183C00000000CC
:1044D0000000007CC6C6C6C6C6C6C67C000000007A
:1044E000000000C6C6C6C6C6C6C6C67C0000000020
:1044F000000000C6E6F6FEDECEC6C6C6000000001E
:1045000000001818001818183C3C3C180000000067
:10451000000030300030303060C6C67C0000000043
:104520001C3000000000000000000000000000003F
:1045300070180000000000000000000000000000F3
:10454000386C0000000000000000000000000000C7
:10455000C6C60000000000000000000000000000CF
:1045600076DC0000000000000000000000000000F9
:1045700000000000000000000000000018300000F3
:10458000000000000000000000000000000000002B
:1045900000000010107CD0D0D0D0D67C10100000CD
:1045A00000001C30303078303030325C00000000C9
:1045B00000000000423C24243C42000000000000B7
:1045C0000000663C187E18187E18181800000000BD
:1045D000000018181818000018181818000000001B
:1045E00000003C6460384444380C4C780000000003
:1045F00000C6C6000000000000000000000000002F
:10460000000000007E425A5E5A427E000000000018
:104610000000700878888874000000000000000026
:104620000000000000366CD86C360000000000006E
:1046300000000000000000FC040400000000000076
:10464000000000000000007C0000000000000000EE
:10465000000000007C4454444C547C0000000000E6
:10466000FE0000000000000000000000000000004C
:104670000070D888D8700000000000000000000022
:104680000000000010107C1010007C0000000000F2
:10469000788C0C183060FC00000000000000000066
:1046A000788C0C780C8C7800000000000000000072
:1046B000000E1820000000000000000000000000B4
:1046C00000000000006666666666667C6060C0008A
:1046D00000007ED4D4D474141414143E00000000DE
:1046E0000000000000003838380000000000000022
:1046F00060E060606060F00000000000000000000A
:1047000000003C6666663C000000000000000000FF
:104710000000000000D86C366CD8000000000000DB
:10472000000040C0444810244C941E0400000000C7
:10473000000040C04448102C5284081E00000000B5
:104740000000C0204428D0244C941E040000000027
:104750000000000000663C183C66000000000000FD
:10476000000000001818007E00181800000000006B
:1047700000000000000818387FFF7F38180800008C
:10478000000000000010181CFEFFFE1C18100000A6
:1047900000000000000010387CFE38383838000077
:1047A00000000000000038383838FE7C3810000067
:1047B0000000000606060616367EFE7C301000005D
:1047C000000000000000030306060CCC783800004F
:1047D0009D00FFFF9E00FFFF9F00FFFFA000FFFF67
:1047E000A100FFFFA200FFFFFFFFFFFFFFFFFFFF92
:1047F000FFFFFFFFFFFFFFFFFFFFFFFFFFFFFFFFC9
:10480000FFFFFFFFFFFFFFFFFFFFFFFFFFFFFFFFB8
:104810007E00FFFF7600FFFF7F00FFFF8000FFFFAD
:104820008100FFFF8200FFFF8300FFFF8400FFFF86
:104830008500FFFF8600FFFF8700FFFF8800FFFF66
:104840008900FFFF8A00FFFF8B00FFFF8C00FFFF46
:104850008D00FFFF8E00FFFF8F00FFFF9000FFFF26
:104860009100FFFF9200FFFF9300FFFF9400FFFF06
:104870007D00FFFF9500FFFF9600FFFF9700FFFF01
:104880009800FFFF9900FFFF9A00FFFF7700FFFFEE
:10489000700079007000780070007A0070007C0071
:1048A00070007B006600FFFF6800FFFF23007D00B3
:1048B000710079007100780071007A0071007B004E
:1048C000720079007200780072007A0072007B003A
:1048D0006900FFFF75007C007300790073007800A9
:1048E00073007A0073007C0073007B009B00FFFF65
:1048F0006E00FFFF740079007400780074007A0085
:1049000074007B00390078006A00FFFF6500FFFF3C
:104910004100600041005F00410061004100630010
:10492000410062006700FFFF6B00FFFF43007D0056
:104930004500600045005F004500610045006200E1
:104940006400600064005F00640061006400620055
:104950006C00FFFF4E0063004F0060004F005F00DF
:104960004F0061004F0063004F0062009C00FFFF9A
:104970006F00FFFF55005F005500600055006100AB
:104980005500620059005F006D00FFFF5900620092
:104990009000FF00D0470008A03D0008A03D00089F
:1049A0009049000820007F0008080100811A0008D3
:1049B000A91B0008B31B0008B91B00080000000079
:1049C00010100101984900080C070A001519000889
:1049D000191900081D190008211900080C001400FD
:1049E00003000200444A0008084A000800000000D2
:1049F000DC4900080000000000000000FF0000008B
:104A000000000000FFFFFF000300000001000000A5
:104A1000FC4900082D1F0008311F0008351F000841
:104A2000AF36000891370008C5370008F93700088D
:104A300031380008391F000841380008493800089B
:104A40003F3800084000005000006400006900008A
:104A50006A40006A90006AA4006AA9006AAA406AD3
:104A6000AA906AAAA46AA95569A900646A40506A12
:104A700040401A90001A900006A40006A4000150BD
:104A8000A04A000800000020F000000028010008F3
:104A9000904B0008F0000020D822000044010008DC
:104AA0000000000000000000000000000000000006
:104AB00000000000000000000000000000000000F6
:104AC0000000000000000000FFFFFFFFFFFFFFFFEE
:104AD00000000000000000000000000000000000D6
:104AE00000000000000000003C0F00002C0100004E
:104AF000D80E0000C8000000000000000000000008
:104B000000000000000000000000000000000000A5
:104B10000000000000000000000000000000000095
:104B20000000000000000000000000000000000085
:104B30000000000000000000000000000000000075
:104B40000000000000000000000000000000000065
:104B50000000000000000000000000000000000055
:104B60000000000000000000000000000000000045
:104B70000000000000000000000000000000000035
:104B8000000000000000000000000000144A0008BF
:040000050800018965
:00000001FF
