:020000040800F2
:10000000B0230020890100088D0100088F0100083D
:10001000910100089301000895010008000000000C
:100020000000000000000000000000009701000830
:1000300099010008000000009B010008C544000869
:10004000AD47000845440008C54500089B4400082A
:10005000ED32000891440008D93000081131000841
:1000600017310008193100082D3200089F010008DF
:100070009F0100089F0100089F0100089F010008E0
:100080009F0100089F0100089F0100089F010008D0
:100090009F0100089F0100089F0100082F320008FF
:1000A000C7450008CD450008CB450008C9450008F4
:1000B0001D4600084146000843460008D9340008A0
:1000C000D7340008DD340008DB3400089D44000804
:1000D0009F440008A5470008A7470008A947000853
:1000E000DD30000893440008AB47000800F002F838
:1000F00000F03AF80AA090E8000C82448344AAF188
:100100000107DA4501D100F02FF8AFF2090EBAE885
:100110000F0013F0010F18BFFB1A43F0010318473B
:100120002868000048680000103A24BF78C878C1E9
:10013000FAD8520724BF30C830C144BF04680C60ED
:10014000704700000023002400250026103A28BF35
:1001500078C1FBD8520728BF30C148BF0B60704739
:100160001FB51FBD10B510BD02F007FE1146FFF709
:10017000F7FF04F049FB02F025FE03B4FFF7F2FF9E
:1001800003BC02F02BFE000008480047FEE7FEE734
:10019000FEE7FEE7FEE7FEE7FEE7FEE7FEE7FEE737
:1001A00003480449024A044B70470000ED00000870
:1001B000B01B0020B0230020B01B0020024B59844C
:1001C0009A8401F0EDB90000C41800202DE9F04137
:1001D00006460A4814460D46B0F92C0040F00200CD
:1001E00001F0F8FA0746224629463046FFF7E6FFB7
:1001F0003846BDE8F04101F0EDBA0000C418002017
:1002000000F00CB800F00EB870B50D4600F00AF81A
:100210000446284600F002F8204370BD0349888454
:10022000002070470149488400207047C41800200E
:10023000FEB52D4D681E2A78014602F003040470B5
:100240006B784968D60605D5C3F10003DBB2A1EB94
:10025000030100E019449306234A4160A2F1010220
:10026000A978926803D54942C9B2114400E0511AF5
:10027000816041680022002901DA426005E0B1F5A1
:10028000C87F02DB40F28F1141608168002901DAEA
:10029000826003E0EF2901DDEF2181604168009178
:1002A000806801908DF80840684601F027FAFEBD8D
:1002B00010B50D4C641E621CE16849B15054491CD4
:1002C000E160032903DBFFF7B3FF0020E06010BD0E
:1002D000C0F381010229FAD110700120F6E702492A
:1002E0000020491EC8607047250000201E490022DA
:1002F00048684A6070471C494A68002A00D1486033
:10030000704700B5FFF7F2FF0028FBD100BD164A89
:100310000832C2E90001144901200860704770B535
:10032000114A0020116800290FD0491E02F108046B
:100330001160D4E90051284601F0BEFE6068012832
:1003400002D12846FFF7D7FF012070BD70B50C46DB
:10035000054601F0B1FE002804D121462846BDE83B
:100360007040D4E770BD0000340000200748007DD5
:1003700070470648407D7047044A0146107D11755C
:100380007047024A0146507D51757047C4180020DD
:1003900001F0ECBD01F0F6BD024A916900B1906137
:1003A00008467047C41800202DE9F04781464FF0F9
:1003B000FF380020B04F1BE037F81100518806EBE2
:1003C0004605014437F91500411A0CB24C450EDAC6
:1003D0006CB1AA49014407EB4500B0F90220081BA3
:1003E00002F017FC37F81500001B27F815003046FF
:1003F00000EB400107EB41021679002EDCD100EB47
:10040000400207EB410137F91220B1F90210114403
:10041000C1F5A0524A4500DB80460FFA88F0BDE8DE
:10042000F0879748A1210422416081604FF4A051D8
:10043000C18101820021016081818F484280018059
:10044000017190490120087070472DE9F041044680
:1004500000F00CF9E41CDFF8288224F0030004B259
:10046000B8F90E00A04254DB834E012000EB40019E
:1004700006EB4101498851B1401CA228F6DB00255A
:10048000EDB3204600F0C8F8411C02D006E005B2EA
:10049000F6E72046FFF788FF411C3AD000EB400109
:1004A00006EB410336F81120598805EB450C571827
:1004B00006EB4C021979548026F81C70117121B199
:1004C00001EB410106EB41014D7150711D71D8F8EE
:1004D00000004146401CC8F80000D8F80400401E47
:1004E000C8F80400D8F80820824200DD88608889B6
:1004F00020448881C889001B00B2C88100E008E060
:10050000B1F91020824201DDA8F810002846BDE8AC
:10051000F0810020FBE7002800D096E77047002814
:1005200006D0554900EB400031F91000534908440A
:10053000704710B500F09AF85148B0F90E0010BDA0
:1005400070B5002400F092F800204B4D0DE035F816
:1005500012005A88104401EB410235F81220101A9B
:1005600000B2A04200DD0446084600EB400205EB65
:10057000420319790029EAD100EB400005EB420162
:1005800035F91000B1F902100844C0F5A05000B2CE
:10059000A04200DD0446204670BD002806D0364942
:1005A00000EB400001EB4000B0F90200704700286A
:1005B00001D000F00AB8704710B50446B0F9000049
:1005C000FFF7F5FF0020208010BD2B4B00EB400013
:1005D00010B503EB4001B1F9020000281BD0284AF6
:1005E000D4890444D4819489201A908100204880C1
:1005F0000879497901EB410403EB4404207120B1EF
:1006000000EB400003EB400041715068401C50601B
:100610001068401E106010BD30B50021164D0CE072
:1006200035F91330B4F90240234402EB420435F9A2
:100630001440E31A834214DA114601EB410305EB3F
:1006400043042279002AEBD101EB410205EB43037D
:1006500035F91220B3F902301A44C2F5A052824291
:1006600001DB08B230BD4FF0FF3030BD05480078E7
:10067000002800D1D5E67047E4140020E4000020F3
:10068000B0180020440000201E488069407D70475B
:1006900000B5FFF7F9FF1B498A8C10448884088C49
:1006A000488400BD10B504460A280ED00D2C0FD08A
:1006B000144880690168204688471348016800296A
:1006C00006D02046BDE810400847BDE81040DFE7EF
:1006D00010BD0C49002091F82C1001F00C020949C2
:1006E000042A896906D0082A01D00C2A01D1087D84
:1006F00040087047087D401E704702498969496873
:1007000008470000C4180020540000202DE9FC41D7
:1007100007461C4615460E46042001F0B5FA8046F1
:100720003548016C406C0F4406440D440444ADF858
:100730000070ADF80450ADF80260ADF806406846B0
:1007400000F0A2FC07E023462A463146384601F075
:10075000DEFA00F072FC0028F5D1404601F094FA70
:10076000BDE8FC8110B500210846FFF74DFD40F6BD
:10077000FF725042BDE8104013460146C6E770B50F
:100780001E4D2E20287002F0A5FE1B4C261D201D9C
:10079000266101F013FC1A48A0641A482661A06182
:1007A0000120207500F09AFEA087032084F84C00F9
:1007B0006FF0704020636063002001F0D7FB6FF0A2
:1007C0007F4001F0DFFB1048E06101F0B2FB04461E
:1007D00000F004FE0AE00A48083000F0E1FE0021C3
:1007E0000846FFF711FD6968491C6960686864285C
:1007F000F1DB204670BD0000C41800204800002036
:1008000048490008C055000894680008B0F9001075
:10081000B0F90420914205DCB0F90210B0F90600ED
:10082000814201DD00207047012070477CB50D46F4
:10083000FFF775FE0446808B81071CD540F6010149
:100840000840012817D02846FFF7E0FF002812D003
:1008500022462946684600F06CFE6846FFF7D6FF40
:10086000002808D0A08B810606D504F108016A464D
:10087000084600F00DFF7CBDDDE90012C4E902125C
:10088000FD4940F02000A083C888401CC8807CBD82
:100890000B46B0F90220B0F90010184600F042BF34
:1008A0001CB5F6490446886B40B102680092406866
:1008B0000190F148B0F9120038B904E02046BDE8D3
:1008C0001C4001F085BBB1F93C00FFF728FE6946EA
:1008D000FFF7DEFF2146684600F00EFE684601F095
:1008E00077FB1CBD2DE9F0410E4607463046FFF769
:1008F00016FE0446007F800711D52146384600F0D9
:10090000FBFDB4F916500DB12E46EFE7DA480A3078
:10091000B0F90000B04202D10120BDE8F081002012
:10092000FBE71CB5D44C607818B1BDE81C40D44836
:10093000B6E7D248B0F93C00FFF7F1FDD0E900106E
:10094000CDE90010B4F9121011B16846FFF7CAFFE3
:100950006846FFF7A5FF1CBD2DE9F0470C000646D1
:1009600019D0FFF7DCFD054600206883EC822046A5
:10097000FFF7D5FD0746287F00F00808B7F91800F3
:100980005FEA000906D0FFF7CAFD0446B8F1000F80
:1009900003D008E03E83BDE8F087207F000702D542
:1009A000A5F81A90F6E7B4F91A7037B13846FFF790
:1009B000B6FDB8F1000F02D007E06683EBE7017FD8
:1009C000090702D566836F83E5E70446EBE770B558
:1009D0000546FFF7A4FD0446B0F9160000280AD02A
:1009E000FFF79DFD0646B0F91800A8420ED1FFF7AB
:1009F00096FD408B308370BDFFF791FD0146B0F945
:100A00001A00A84202D1608B488370BD0028F3D140
:100A100070BD70B505469848B0F9084008E0294611
:100A20002046FFF703FF2046FFF779FDB0F9144099
:100A3000002CF4D170BD70B50546FFF770FD04467B
:100A4000C08A002807D02846FFF7C1FF2046FFF7DD
:100A5000E0FF0020E08270BD70B5884CB4F93C60C6
:100A600010B98548B0F90800A087FFF758FD054682
:100A700001F05BFAB5F900002064B5F9020060648A
:100A8000304670BD70B505467B48B0F908000DE0F2
:100A9000FFF745FDB0F914100446A94205D12846D8
:100AA000FFF73DFD808AA08270BD08460028EFD187
:100AB00070BD70B50D4604000AD0FFF730FD016926
:100AC000002905D0AC8002692846BDE87040104777
:100AD00070BD0EB50091ADF804006946FFF7E9FF5F
:100AE0000EBD10B504466448B0F9080007E0A04206
:100AF00001D1012010BDFFF712FDB0F9140000284C
:100B0000F5D110BD70B5040048D0FFF7EAFF00280A
:100B100044D02046FFF703FD574E05460020B08223
:100B2000B6F91010A14200D13082B6F90E10A142E0
:100B300000D1F0812246B16905E0B1F90430934259
:100B400000D1888009680029F7D10721104601F0FB
:100B5000ABFAB5F9180000F022F80B212046FFF798
:100B6000B8FF2046FFF767FF2046FFF78BFFA88BF3
:100B7000C10703D0716AA1F101017162800602D53B
:100B8000F088401EF080B088401EB0802046FFF7FD
:100B90000EFDB6F90800BDE870405DE770BD70B5A8
:100BA000044608E02046FFF7BAFCB0F91A50204688
:100BB000FFF7A8FF2C46002CF4D170BD29E72DE9E2
:100BC000FC4190460E463EE0FFF7A9FC848B0546AB
:100BD000A00736D55FEA080005D0024629466846D8
:100BE00000F0A7FC03E0D5E90001CDE9000169466A
:100BF000304600F0A6FD20B3E00702D0B5F918405A
:100C00001DE0B5F90200B6F90210884205DDBDF914
:100C10000200401E03E0F08013E0BDF90600B6F9C3
:100C200006108842F7DB0CE02046FFF778FC074609
:100C30006A4631462046FFF7C2FFB7F91A40002C3A
:100C4000F2D1B5F91A000028BED1BDE8FC812DE92A
:100C5000FC479146884600263AE0FFF760FC848B0B
:100C60000546A00732D55FEA09000BD002462946A7
:100C7000684600F05EFC09E064000020C418002013
:100C800028190020D5E90001CDE900016946404658
:100C900000F057FDD0B1E00702D0B5F9184013E0DD
:100CA000BDF80400401CA8F8000001260EE0204614
:100CB000FFF735FC07466A4641462046FFF7C7FF67
:100CC00000B10126B7F91A40002CF0D1B5F91A008D
:100CD0000028C2D13046BDE8FC872DE9FC41904692
:100CE0000E4630E0FFF71BFC848B0546A00728D595
:100CF0005FEA080005D002462946684600F019FC64
:100D000003E0D5E90001CDE900016946304600F075
:100D100018FDB0B1E00702D0B5F918400FE0BDF8FA
:100D20000000401EB0800CE02046FFF7F8FB0746AD
:100D30006A4631462046FFF7D0FFB7F91A40002C2B
:100D4000F2D1B5F91A000028CCD17EE700224A8002
:100D50000A8082880388D21A8A80C2884088101A42
:100D6000C88070477FB50D46060023D0FFF7D7FB3C
:100D7000848BA1071ED5D0E90012CDE9001255B130
:100D8000296802916968039102A9FFF781FD02A910
:100D9000684600F0B1FB31466846FFF7A3FD002826
:100DA00008D040F601000440012C04D069463046CA
:100DB000FFF73CFD7FBD6846FFF72BFE7FBD00219E
:100DC000D0E72DE9F84FFC4C8046DDE90A65A089A3
:100DD000DDF834B0994692460F4605432EB9A088F7
:100DE00018B104F10A00B0F90060701C0DD0DEB13A
:100DF0003046FFF794FBB0F90010B0F902208844A8
:100E00001744BAF1000F02D006E000260CE0B0F95A
:100E10000430591A01F1010AB9F1000F04D1B0F9F7
:100E20000600801A00F101090BF1200000B200F069
:100E3000A9FB0090F0B3A088A346401CA0800098B6
:100E4000FFF76DFBA0F8008008EB0A014780491E00
:100E5000818007EB0901491EC1800C99016104469C
:100E6000818B43F68F7028400143A183BBF90800B2
:100E7000009F58B1FFF753FB80463846FFF74FFB02
:100E8000B8F814108182A8F8147001E0ABF808706B
:100E900031460098FFF760FDA80602D50098FFF7DD
:100EA000DBFDE80705D0DBF8241001F10101CBF8E8
:100EB000241000E011E0680602D5009801F0B6F8B1
:100EC000A80706D5A08B40F00200A0830098FFF78A
:100ED00076FF01210098FFF7FCFD0098BDE8F88F30
:100EE0002DE9FF410AAF0DF1040870CF00270097EC
:100EF000A8E87000FFF765FF04B00EE5AF48B0F951
:100F00003C0070472DE9FC41AD4ED6E90201CDE928
:100F10000001306968B3B089401C00B2ADF8000030
:100F20007189ADF80210B6F90410884206DD3088E8
:100F3000ADF80000F089401CADF80200BDF90200D8
:100F4000B6F90610884270DC9C4FB7F93C00FFF7F9
:100F5000E6FA0446BDF90000B6F90010884220D137
:100F6000F088ADF80600B088ADF80400B7F93C0091
:100F70000FE03088ADF800007088DDE7FFF7CFFAAA
:100F80000546B0F91A0000226946FFF718FEB5F9C8
:100F900016000028F2D1B4F9180000226946FFF7C4
:100FA0000EFEBDF80000ADF80400B7F93C000CE0FF
:100FB000FFF7B5FA0546B0F91A0000226946FFF7B7
:100FC00046FE0028EDD1B5F916000028F0D1B4F99D
:100FD000180000226946FFF73AFE0028E1D1B6F971
:100FE0000400BDF90010ADF80400884204DADDE920
:100FF0000001C6E902019AE7B7F93C000AE0FFF7F1
:101000008EFA0546B0F91A0000226946FFF765FE20
:10101000B5F916000028F2D1B4F91800002269468B
:10102000FFF75BFE3069C82801DD00200DE6DDE931
:101030000001C6E90201012007E670B55E4D68783F
:10104000002806D05E4C6069012803DD401E606107
:10105000002070BD287820B1002028705948006811
:1010600080472069401C2061FFF74CFF50B1FFF71B
:1010700058FC5548016819B1514808308847287014
:10108000012070BD6069E1E72DE9FF414A4E8046CD
:10109000707838B14A4D6869401C6861012804DDE8
:1010A000012029E7FFF73DFCFAE7444FB7F93C0080
:1010B000FFF735FA04464FF0FF302861B07820B1D1
:1010C000A0680090E068019006E0207F800732D59C
:1010D000D4E90001CDE900015FEA080003D0014630
:1010E000684600F009FAB96B89B10A68029249684A
:1010F0000391B6F91210204611B10846FFF70FFA16
:1011000002A9FFF7C5FB02A9684600F0F5F9B6F998
:10111000121019B16846FFF7E5FB60B1B7F93C1052
:101120006846FFF7DFFB30B1DDE90001C5E90001EA
:10113000FFF783FFE0E66869401E68610020DBE698
:1011400010B500F027FB1D490020886310BDFEB5D7
:1011500005460A69888B002A2CD082072AD5164EAC
:10116000C0044FF00F07B27801F1080402F1010248
:10117000B2700AD5ADF8045000970294FFF7E0FF73
:1011800069462846FFF795FC11E02046FFF77CFFF3
:101190000BE0ADF8045000970294FFF7D1FF6946C9
:1011A0002846FFF786FCFFF748FF0028F1D1B0780A
:1011B000401EB070FEBD000064000020C418002076
:1011C00020190020600000205C0000202DE9F0477D
:1011D000BC4C81460D46B4F93C00FFF7A0F908303D
:1011E0002946804600F0ADFA00281BD0D4E91067EC
:1011F0004246294605F1080000F09BF9DFF8C88255
:101200002946A8F81290B5F900002064B5F902004B
:1012100060644846FFF79BFF0021A8F81210C4E95C
:1012200010670120BDE8F0872DE9F0470446007FF4
:101230008007F7D5B4F9186004F108091BE03046BF
:10124000FFF76DF90546007FC043800711D149467D
:10125000284600F076FA60B1D4E90270804629464B
:101260003046FFF7B3FF10B12846FFF7DDFFC4E9B2
:101270000278B5F91A60002EE1D1D3E770B5446861
:10128000B0F9002040F60101A08B0840012803D0EE
:1012900021461046FFF75BFF8B48406A002823D0A9
:1012A0002046FFF7C1FFB4F91660B4F91A4019E0FF
:1012B0002046FFF734F90546007FC043800703D17D
:1012C00029462046FFF782FF2846FFF7ADFFB5F914
:1012D0001A40002CECD13046FFF721F9B0F91A4042
:1012E000B0F91660002EF4D170BD10B5764C206AAE
:1012F00000B180477548006808B1804710B9FFF712
:101300000EF808B1012010BD607820B1E08810B15E
:1013100000F092F8F6E7002010BD10B5002400E0C0
:101320000124FFF7E2FF0028FAD1204610BD70B576
:10133000B0F90450044686682846FFF7F0F80246E4
:101340002068172811D004DC0E2810D0142809D1E9
:1013500004E0222811D0282804D111E0314610469B
:10136000FFF7F4FC0020A06070BDA56070BD2146B1
:101370002846BDE8704000F005BF6FF07040F2E70E
:101380002846BDE870401AE510B5044600680E28EE
:1013900002D00F2814D108E0A0684168012913D1B8
:1013A0000068BDE81040FEF7A6BF47486FF07041E7
:1013B0001C300068884203D0FEF7EAFFFFF7D2F93D
:1013C0002046BDE81040B2E710BD3F4901204870FB
:1013D00070473D490020487000F0A7BD3EB53A4C2B
:1013E000E078002827D137492081A0828863E080F7
:1013F000A08037490222CDE9002140F6FF72029019
:1014000013460146FFF76CFD04F10A0504F11C02C6
:1014100028806FF070411160FFF7D1FC2D4800F07B
:1014200027FE2D4800F024FEB5F90000FFF714FB5D
:1014300001206070E0703EBD2DE9F041DFF888804A
:1014400096B00125B8F914700FB9B8F9087068465C
:1014500000F094F92BE03846FFF761F80446007F6E
:101460000026800621D5206978B1394604F10800AC
:10147000FFF738FA48B1ADF8507038461594FFF7C9
:10148000EBFA14A8FFF7FAFE0126A08B20F020004B
:10149000A083810402D540F00401A183B8F80610AE
:1014A000491EA8F8061006B16D1EB4F914700FB1EC
:1014B000002DD0D1A8F81470684600F063F916B07A
:1014C000BDE8F081C4180020640000205000002016
:1014D0008913000890000020980000200148B0F90E
:1014E000000070476E00002010B5002803D0FFF701
:1014F00016F8B0F9160010BDB0F90030B1F90020AF
:10150000934200DA0280B0F90230B1F9022093422E
:1015100000DA4280B0F90430B1F90420934200DDD2
:101520008280B0F90620B1F906108A4200DDC18040
:10153000704770B5B1F90030B2F90040A34200DC49
:1015400023460380B1F90250B2F90240A54200DC03
:1015500025464580B1F90440B2F90460B44200DD8B
:1015600034468480B1F90660B2F906108E4200DC80
:101570003146C1809C4201DBA94201DA002070BDE6
:10158000012070BD70B50546FEF7C5FF040005D00B
:10159000FEF7C5FF2A46002100F020FF204670BD5F
:1015A0002DE9FC47050055D0FFF76EF8374E07468A
:1015B000B6F92290FFF78DF8B18C8046A1EB0800B8
:1015C000B0843CE047F6FF71284600F092F982466D
:1015D0000146284600F0A5F9044696F82C0000F0D4
:1015E000030001283CD0022836D00020718C6A46C6
:1015F000081A7084ADF80000611E0844ADF80400BC
:10160000B08CADF80200791E0844ADF806005146D2
:10161000284600F09DF9BDF80200B08451462846E6
:1016200000F00BF9054428780A281BD00D2819D0A2
:10163000BDF8000020447084287818B16D1C28780B
:101640000028BFD1B18C01EB0800B084B08D20F030
:101650000300B085BDE8FC8704EBD4704010C5E7FB
:101660002046C3E796F82C0000F0030001280AD0BA
:10167000022808D0308C708428780A28DCD1B08CFD
:101680003844B084D8E7A6F82290F5E7C4180020C3
:1016900010B5002821D009B30AB3B1F90030B2F96E
:1016A0000040A34200DD23460380B1F90230B2F9C5
:1016B0000240A34200DD23464380B1F90430B2F971
:1016C0000440A34200DC23468380B1F90630B2F91E
:1016D00006108B4200DD1946C18010BD11460A6814
:1016E00002604968416010BD0D4910B591E81C00C9
:1016F0001CC0087A002800D0012010BD10B5044697
:101700000C22074901F014FA002808D0044894E894
:101710000E000EC02046BDE8104000F0A3BE10BD74
:101720003819002000280BD003880B4403808388DD
:1017300019448180418811444180C1881144C1808D
:101740007047B0F90220B1F906309A4213DCB1F9C2
:101750000220B0F906309A420DDCB0F90020B1F950
:1017600004309A4207DCB1F90010B0F9040081425C
:1017700001DC01207047002070470000502204491E
:1017800001F089BA01465022014801F084BA0000F4
:10179000C418002010B50020FEF7FAFD6FF07F405E
:1017A000FEF7F8FD0120FEF7E7FD002000F012F83B
:1017B000002000F017F8002000F06AFE0448FEF751
:1017C000EBFDBDE81040002000F064BEE2E7000041
:1017D000C0550008024A0146B2F92C0091857047B5
:1017E000C4180020024A0146B2F92A005185704708
:1017F000C41800202349C969496808472149C969B3
:10180000096808471F4AD269D26810471D49C9694B
:10181000896808472DE9F0411A4F04460568F869C0
:101820000168284688470646F8694168284688477F
:10183000284420603046BDE8F0812DE9F0410D4696
:10184000064600240F4F05E0F86941683046884796
:10185000064404446D1EF7D22046ECE72DE9F04122
:1018600000250E4607462C46DFF8188006E0D8F81B
:101870001C1038194968884704446D1CA642F6DCE0
:101880002846D8E7C4180020007870470120704728
:101890000120704701700120704703490148C86169
:1018A0007047000094680008C4180020F7B54F4D39
:1018B0000C46286920B11146FFF743FF002806D0E7
:1018C000A869006920B18268214600989047FEBD52
:1018D000474E0BE06846FFF79DFF0746A869016881
:1018E00038468847316809B138468847641EF1D5C3
:1018F000FEBD73B50D46009A002482B13B48806955
:10190000006950B14368104698477CBD6846FFF7B0
:1019100081FF20B10A2802D0641CAC42F6DB2046CD
:101920007CBD73B50C46009A00257AB12F488069BA
:10193000006948B10368104698477CBD6846FFF7C8
:1019400069FFFEF7DAFE0544641EF7D528467CBD24
:101950007CB5064627480D46006868B10020FFF7B1
:1019600093FB06E06A4629463046FFF79FFFFFF7E4
:1019700064FB0028F6D17CBD106800901B4C5068B9
:101980000190BDF80010B4F840000144ADF800101B
:10199000BDF80220B4F844100A44ADF80220BDF8A6
:1019A00004201044ADF80400BDF806000844ADF86A
:1019B00006006846FFF768FB0CE0BDF80000608495
:1019C000BDF80200A0846A4629463046FFF76EFF44
:1019D000FFF733FB0028F0D134F8220FE18B401AD7
:1019E00020806088618C401A60807CBDC418002013
:1019F00054000020580000202DE9F04FDFF858B1C6
:101A00008BB04FF0FF36BBF922200692DBF818307E
:101A1000BBF924A09C69A189814206D8E28982424F
:101A200003D3451AD4F8008013E0D4E9018179B1D9
:101A30000A8882420CD84D88854209D3801A4968A9
:101A400080B201EB8000B0F90050B0F9026000E014
:101A50003546681C5BD0187DA17C00FB01F9217C18
:101A6000CDE90710BBF92A70384600F00DF9C0B275
:101A700005FB09810990A27C0125CDF814B00295DF
:101A8000CDE90321DBF818000DF1180CC17D807D34
:101A9000CDE90001BCE80D00514600F056F9701C7C
:101AA00017D047F0020000F0EFF8A17C06FB098296
:101AB000CDE9042BCDE90251DBF818000DF1180C2B
:101AC000C17D807DCDE90001BCE80D00514600F0EC
:101AD0003CF9DBF818005D46417D007D814213D959
:101AE000022F11D087F0040000F0CEF8A869037D22
:101AF000427D857D03FB02A102EB0A03DDE90602BC
:101B000002FB050200F003F9099800F0BDF8BBF8EC
:101B10002210627C1144ABF822100BB0BDE8F08FAC
:101B20000D4880698069407C7047022008807047BA
:101B3000806982898A4202D8C2898A4207D2806833
:101B400038B102888A4204D84088884201D30120F3
:101B50007047002070470000C41800202DE9F043B2
:101B60003F4D044687B0A869B5F92A8021468069AF
:101B700000F06AF8002846D041680088201A01EB7E
:101B8000C0044046A67800F07FF8814660680121D5
:101B9000CDE90405CDE90216A869C27D817DCDE9B4
:101BA0000012037D2278B5F92410B5F9220000F067
:101BB000CCF8A869477D067DB74219D9C07D474357
:101BC0004643B8F1020F13D000F038FC804600F015
:101BD0002CFCFEF7DFFBB5F9220021784218B5F99D
:101BE0002410CB19314400F092F84046FEF7D2FBA6
:101BF000484600F049F8AA69B5F922006178927D5B
:101C000001FB0200688407B0BDE8F08370B5144C96
:101C100005462946A069806900F016F8002807D01B
:101C200041680088281A11F83000A169897D48436D
:101C300070BD01200880704710B5806900F004F87D
:101C4000002800D0012010BD06E002888A4202D898
:101C500042888A4202D280680028F6D1704700008C
:101C6000C418002010B50446012000F097F9CE49B1
:101C700021F8104010BD10B50446002000F08EF988
:101C8000C94921F8104010BDC74910B50246087B6C
:101C900080EA02035B0703D50B884C880C804B80DD
:101CA0000A7310BDC04AB2F906308B4213DCB2F998
:101CB0000A308B420FDBB2F9043083420BDCB2F9FD
:101CC0000830834207DB137BDB0701D002F010B83A
:101CD000528802F009B8704730B4B34CB4F90630FA
:101CE0008B4212DCB4F90A308B420EDBB4F90430BB
:101CF000834200DD1846B4F90830934200DA1A46F0
:101D0000824202DB30BC01F065BF30BC704730B4AA
:101D1000A54DB5F90440844200DD2046B5F90840E0
:101D2000944200DA22468242EFDBB5F906408C424B
:101D300000DD2146B5F90A409C4200DA23468B4279
:101D4000E3DB30BC01F07ABFDFE72DE9F04F054659
:101D5000964887B09846149C00689146002790B139
:101D6000DDE91263159ACDE90263CDE90442DDE9AC
:101D70001023CDE90023046843464A462846A0477D
:101D800007B0BDE8F08FDDE9100205EB090301EBB8
:101D9000080C5B1E1043ACF1010C012807D012980F
:101DA000C0F10800CDE9011000200490BAE07E4E99
:101DB000B6F90620501A002808DDA8EB0008B8F193
:101DC000000FDDDD1146139A00FB0244B6F90A004C
:101DD000ACEB0000002804DDA8EB0008B8F1000F10
:101DE000CEDDB6F90800181A002801DDA9EB0009BC
:101DF000B6F904000022A84233DD421B1298A9EB79
:101E0000020904281FD004DC01280CD0022828D1A4
:101E100011E0654BB3F904305B1B2B4408281AD042
:101E200010281ED119E022F0070004EBE20405445B
:101E300002F0070215E022F0030004EBA2040544BF
:101E400002F003020DE022F0010004EB62040544FD
:101E500002F0010205E0144401E004EB42041D46D7
:101E60000022B9F1000F8BDD1598139BCDE90320FB
:101E7000CDE901341298009043464A46284601F0C5
:101E800037FC7DE711990198084406904649401EA9
:101E90000090B1F9062082423CDC0846B0F90A10F5
:101EA0000198814236DB0026AA46B34603942FE010
:101EB00026B90398082610F8017B0390029937FA97
:101EC00001F0129907FA01F7FFB2A6EB010603D160
:101ED0003549097B890717D43349498805911599F4
:101EE00021B131F810103048418001E02E4948807E
:101EF000109950460AEB0102DDE90031521EFFF74E
:101F000006FF29490598488010990BF1010B8A4476
:101F1000CB45CDDB0498401C0490069801901398A3
:101F2000044404984045ADDB2AE71F48001D00F03B
:101F300045B810B5FFF7F9FF01F0D2FE044600F0F6
:101F40004FFD0420FFF7A0FE40F6FF72002113466C
:101F50000846FFF7DCFE0020FFF796FE01F0C2FE08
:101F6000204610BD00F024B800F024B80E4910B58A
:101F70004A6B824205D04863FFF7F4FFBDE810408A
:101F800079E610BD084910B50A6B824205D0086396
:101F9000FFF7E8FFBDE8104064E610BD0249097B89
:101FA000490700D5401E7047C41800205800002083
:101FB00000F006BA00F018BD00F00DBA0021018053
:101FC000418040F28F118180EF21C1807047000075
:101FD0001CB504466846FFF7F1FF6A4621460248F1
:101FE000FFF7A7FA1CBD0000C818002070B50C460A
:101FF000002550B14CB1FEF792FAB0F91600A0429C
:1020000001D1012501E00028F5D1284670BD8842A4
:1020100001D101207047E9E710B50124FEF77FFAEE
:10202000007FC00600D50024204610BD2DE9F041F8
:1020300007001AD0FEF773FA0646384600F0EEFCA9
:10204000040012D03846FFF74FFAFEF768FA05464B
:102050002046FEF764FA718B4183288B70832F83AF
:102060003046BDE8F041FEF7D4BCBDE8F081000089
:102070000B490A68026008607047094B196800291B
:1020800005D00022814206D108680AB1106070476D
:102090000028186070470A4609680029F2D1704785
:1020A0007C000020FEF71DBD0EB526220291009295
:1020B000694600F067F80EBD00B50A4A03460020E5
:1020C000B2F9002085B0002A0AD00E20009003A8A3
:1020D0000290CDE903316946104600F0B2FC0120C0
:1020E00005B000BD74000020037F9B0711D5B0F937
:1020F00000308B420DDCB0F904308B4209DBB0F9C3
:102100000210914205DCB0F90600904201DB01208B
:102110007047002070472DE9F047984691460F46DA
:102120000546FEF7FCF9044642464946FFF7DCFF48
:10213000002814D0B4F918400DE02046FEF7EFF95E
:10214000064643464A4639462046FFF7E4FF00B1BB
:102150000546B6F91A400CB1BC42EED12846BDE89E
:10216000F087024606480B460021B0F90000D2E78E
:1021700013460A4601460248B0F90000CBE70000CA
:102180006C00002070B50C00054609D0FFF7ACF9D3
:10219000002805D0E5802146BDE87040FEF789BCE7
:1021A00070BD000070B50E4E04460D46B6F9000035
:1021B000A04201D000F006F80A483480057070BDD6
:1021C000AFF300803EB5064CB4F90000002806D0FD
:1021D000182100916946FEF76CFC002020803EBD6E
:1021E000720000208C00002070B5714C0546A0885C
:1021F00048B1B4F904102846FFF7F8FE18B9B4F94D
:102200000400A84201D1012070BD002070BD3EB580
:102210000D46044607C98DE807006946204600F0D0
:1022200020FC0D20ADF80640009008E02046FFF7A6
:102230005BF9040003D06946029500F012FC2046C9
:10224000FFF730FF0028F1D13EBD70B58C680D4618
:1022500006465CB1FEF763F9B0F900202168891ADF
:102260002160B0F902006168081A606029463046B2
:10227000BDE87040CBE72DE9F0418EB000276846FD
:1022800000F0E4F803A8FFF7F3FE4A4C0099206839
:10229000884208D160680199884204D1207A9DF86B
:1022A000081088427DD0DDE9000100F0CEF94248F7
:1022B000B0F9000018B9DDE90001FFF752FFADF8F1
:1022C0001000BDF91000FFF78FFF002866D0207ABC
:1022D0009DF80810884220D0BDF81000E8B1BDF983
:1022E0001000FEF71CF99DF808108DF83410217AC3
:1022F0008DF83510B0F900200099891A0B91B0F9CA
:1023000002000199081A0C900BA807901120059063
:10231000BDF9100005A900F0A4FB217A9DF8080082
:1023200001433BD0224D0C21012708350591B5F919
:102330000410BDF9102000260DF12008914212D0A2
:10234000A98881B108B1079607E020680890606805
:1023500009908DF82860CDF81C80B5F9040005A916
:10236000FFF773FFAE80BDF81000B8B19DE807001D
:1023700008AB07C39DF8280018B1BDF81000A8806D
:1023800005E00E48007808B1FFF71AFFAE80BDF9EE
:102390001000CDF81C8005A9FFF757FF9DE8070046
:1023A00007C403A8FFF769FE0EB03846BDE8F08108
:1023B0009000002014190020720000208C000020E2
:1023C000C0F3C402C0F38521C0F3C44000EB411048
:1023D00000EBC22070474FF6FF70704710B502E067
:1023E00000F8011B521E0AB18307F9D1930817D0D8
:1023F00001EB014402F0030204EB042405E0046055
:1024000044608460C46010301B1F042BF7DA01E0C5
:1024100010C05B1E002BFBD102E000F8011B521E16
:10242000002AFAD110BD00F071BB10B500F06EFBB0
:10243000BDE81040FFF798BD00F06BBB10B500F091
:1024400068FBBDE81040FFF78FBD00000D49D1E9E2
:10245000002389680260C0E90131007A002800D0B9
:102460000120704710B509490446074808600C224E
:102470002146044800F05CFB002802D001480ECC45
:102480000EC010BD44190020772200085000002023
:10249000FFF7FABB024A0146907D91757047000034
:1024A000C4180020F94B30B4B3F902408C4210DC60
:1024B000B3F906408C420CDBB3F90040844208DCDF
:1024C000B3F90430834204DBF14B1B685B6A30BC18
:1024D000184730BC7047ED4AB2F902308B420DDC30
:1024E000B2F906308B4209DBB2F90030834205DCD9
:1024F000B2F90420824201DB01F0BCBB002070472E
:10250000E24A10B5203A9068002813D08188138AD7
:10251000591A02F1180319800489928A121B5A80F1
:10252000046824882144491E99800068408810442A
:10253000401ED88010BDD54910B52039097851B159
:1025400028B1D2490839FFF7FCF8002802D000F082
:1025500085F9012010BD002010BD00F08AB9CB49DB
:1025600020398878401E10F0FF00887001D100F0FB
:1025700080B97047C54920398878421C8A70002884
:1025800001D100F06BB970472DE9F047BF4F064607
:10259000203FB868814686422ED03568E8680468D6
:1025A000042C00DD0424DFF8E48208F1080807E0C9
:1025B000E868806850F82400FFF7D4FC28F814007D
:1025C000641EF5D200F04AF928886988484344001F
:1025D000F868844205D0B7F90400FDF7E8FF002051
:1025E000B88020B2FEF7CEFFB88001207870BE60C0
:1025F000FFF786FF00F03DF94846BDE8F08710B5CB
:1026000000F02CF9A149002020394870A149086048
:10261000A149086010BD10B59C48FFF7CFFC00F041
:102620001DF99A48012120389A4A41709B4911604E
:10263000994A9B491160806818B1BDE8104000F0CC
:1026400018B9BDE8104097489EE72DE9F34F8F4B2E
:102650008FB0203BB3F9040000286FD01A690F999E
:102660008A4201D0012100E000215C69109A944265
:1026700001D0012200E0002211435FD083492039BC
:102680004978002974D0814C203CA16809680A91DE
:10269000FDF745FF0B90A0680F9A0068018806912E
:1026A0002369A2EB03084FF0FF32B8F1000F09DDF8
:1026B000012303930023CDE90031491ECDF80880A2
:1026C000099108E0491ECDE900120021029100990C
:1026D00003924144099110996369A1EB0309B9F18F
:1026E000000F09DD01210591408800250890401E5A
:1026F000CDF8109007908FE0059245886D1E002060
:10270000049005EB0900CDE9070285E0049805EB8C
:102710000907854204DB0798854201DC012000E0BF
:1027200000200E900498874204DB0798874201DC62
:10273000012000E000200D90009C68E07AE00B98FA
:1027400004EB080600EB440106982A46684301EBB7
:10275000400B21460A9800F092F982460298844282
:1027600007DB0998844204DC0E9810B1012001E0D7
:1027700056E0002002998E4206DB09998E4203DC66
:102780000D9909B1012100E000210C91BAF1000F6F
:1027900014D038B1A5EB0902A4EB08010A9800F0A7
:1027A0006EF958B93948BBF800200838B0F9021062
:1027B000B0F9000029442044FFF774FE0C9838B1AA
:1027C0000B9800EB46010698784331F810000AE0B8
:1027D0002E480838B0F90210B0F9000039443044EE
:1027E000FFF779FE80B2ABF800005FEA0A000CD078
:1027F00000F023F882B225480838B0F90210B0F989
:10280000000039443044FFF74DFE0398044401981A
:10281000844294D105980544089885427FF476AFA8
:102820001A480F99203801611099416111B0BDE833
:10283000F04F65E611B0BDE8F08F042804DA1349C3
:10284000083131F81000704710492039896809684B
:10285000C968896851F82000FFF784BB10B50B4C9C
:10286000203C2078002803D000F01EF800202070C3
:1028700010BD064820384178002906D0817800290B
:1028800003D10121017000F045B87047C00000205D
:10289000D00000205C0000206000002037250008E8
:1028A0005B250008B86800082DE9F0473D4CB4F9F5
:1028B000040000282DD0FDF732FE064604F1180072
:1028C0008046B0F90410B0F90020A2468F1AB0F982
:1028D0000610B0F902207F1C891A01F101090025B8
:1028E00015E000240AE0B8F90210B8F9000036F843
:1028F000142029442044FFF7D5FD641CBC42F2DBC0
:10290000DAF808006D1C0068008806EB40064D45AB
:10291000E7DB72E62DE9F0472249B1F9040000280F
:102920003ED08968D1F80090FDF7F9FD1D4F0646AD
:102930001837B7F90400B7F90010401A00F1010880
:10294000B7F90600B7F90210401A00F1010A002594
:1029500024E000241BE0B7F902004119B7F9000098
:102960002044FFF7B8FD26F814002A4621464846C1
:1029700000F085F850B1FFF760FF0246B7F902009A
:102980004119B7F900002044FFF78CFD641C444551
:10299000E1DBB9F800006D1C06EB40065545D8DBBD
:1029A0002BE60000A00000202DE9F041002806D011
:1029B00085681DB10668B6F5807F02DD0020BDE8A0
:1029C000F0810024074F06E055F82400FFF7CAFA0B
:1029D00027F81400641CB442F6DB0248EFE7E3E793
:1029E00070470000501900201F2300F01F02C0F3A1
:1029F000451110B5C0F3C420C0EB0020C1EB01218C
:102A00003F24B0FBF3F0B1FBF4F1C2EB0222B2FBC6
:102A1000F3F200EB012000EB024010BD70B505465B
:102A200000F07CF809E0AC4201D1002407E0FDF79A
:102A300076FDB0F91A00A84201D00400F3D1204677
:102A400070BD70B50C460546FDF769FDA5800269AD
:102A5000204612B1BDE870401047BDE87040FEF757
:102A600066BC70B50C460546FFF7D6FA002805D0BF
:102A700021462846BDE87040FFF7E3BF70BDC3881C
:102A8000042B28D004DC012B08D0022B04D113E046
:102A9000082B2DD0102B31D0002070478388806800
:102AA000534303EBD10201F00701805CC1F1070140
:102AB000C84000F00100704783888068534303EBEF
:102AC0009102805C062202EA4101C1F10601C84080
:102AD00000F00300704783888068534303EB510282
:102AE000C907805C02D000F00F00704700097047F2
:102AF0008388806802FB0311405C7047838880688C
:102B0000534303EB410108440088704702480088A2
:102B10007047014840887047C418002010B5FEF780
:102B2000E3FC002803D0FDF7FAFCB0F9180010BD53
:102B300040EA010310B59B070FD1042A0DD310C83A
:102B400008C9121F9C42F8D020BA19BA884201D98C
:102B5000012010BD4FF0FF3010BD1AB1D30703D0D4
:102B6000521C07E0002010BD10F8013B11F8014B8A
:102B70001B1B07D110F8013B11F8014B1B1B01D1A6
:102B8000921EF1D1184610BD032A40F2308010F099
:102B9000030C00F0158011F8013BBCF1020F6244F8
:102BA00098BF11F801CB00F8013B38BF11F8013B89
:102BB000A2F1040298BF00F801CB38BF00F8013B36
:102BC00011F0030300F06780083AC0F0088051F864
:102BD000043B083A51F804CBA0E80810F5E7121DB1
:102BE0005CBF51F8043B40F8043BAFF30080D207D0
:102BF00024BF11F8013B11F801CB48BF11F8012B9C
:102C000024BF00F8013B00F801CB48BF00F8012BBE
:102C10007047431A28BF9A427FF6B6AF032A104482
:102C2000114440F2268010F0030F1EBF11F8013D41
:102C3000521E00F8013D10F0030F7FF4F6AF11F0C3
:102C4000030300F07080083AC0F00B8051F8043D97
:102C5000083A51F804CD40F8043D40F804CDFFF7A0
:102C6000F3BF121D5CBF51F8043D40F8043DAFF3C3
:102C70000080D20724BF11F8013D11F801CD48BFF3
:102C800011F8012C24BF00F8013D00F801CD48BF28
:102C900000F8012C704710B5203AC0F00B80B1E865
:102CA0001850203AA0E81850B1E81850A0E8185081
:102CB000BFF4F5AF5FEA027C24BFB1E81850A0E88A
:102CC000185044BF18C918C0BDE810405FEA827CA4
:102CD00024BF51F8043B40F8043B08BF7047D207BB
:102CE00028BF31F8023B48BF11F8012B28BF20F85C
:102CF000023B48BF00F8012B704770477047704790
:102D0000431A28BF9A427FF6C6AF104410F0030F53
:102D100011441EBF11F8013D521E00F8013D10F094
:102D2000030F7FF4F6AF103AC0F00A8010B531E916
:102D30001850103A20E91850BFF4F9AFBDE8104020
:102D4000530724BF31E9081020E9081044BF51F8A7
:102D5000043D40F8043D12F0030F08BF7047D2074E
:102D600028BF31F8023D48BF11F8012C28BF20F8D8
:102D7000023D48BF00F8012C7047754600F028F866
:102D8000AE4605006946534620F00700854618B058
:102D900020B5FDF705FABDE820404FF000064FF0E2
:102DA00000074FF000084FF0000B21F00701AC4680
:102DB000ACE8C009ACE8C009ACE8C009ACE8C0099F
:102DC0008D4670470446AFF300802046FDF7D5F9E5
:102DD00000487047501B0020704700000149182030
:102DE000ABBEFEE72600020030B44FF0C0454FF006
:102DF0002A0CA5F800C0DFF840C0040AACF8004077
:102E0000C0B2ACF80000080AACF80000C8B2ACF8D8
:102E100000002B202880100AACF80000D0B2ACF8DB
:102E20000000180AACF80000D8B2ACF800002C2062
:102E3000288030BC70470000000002604FF0E022A4
:102E40000023936107211161034908600868002885
:102E5000FCD1136170470000000000202DE9F0470D
:102E60000546DDE908400F46B0F80090B0F8028052
:102E7000924816789246007B10F0030103F0070099
:102E800004D0012912D0022908D017E0082815D251
:102E9000DFE800F07F8C9AA8B6C4D2E008280DD2F3
:102EA000DFE800F00C1825323F4C5966082805D29F
:102EB000DFE800F0E2E6EAEEF2F6FAFC16F0800F48
:102EC00004D0B9B2A8B2424600F0FAF8641E08BFB6
:102ED000BDE8F08716F0400F05D0681CB9B280B28B
:102EE000424600F0EDF8641E08BFBDE8F08716F01A
:102EF000200F05D0A81CB9B280B2424600F0E0F81D
:102F0000641E08BFBDE8F08716F0100F05D0E81C5E
:102F1000B9B280B2424600F0D3F8641E08BFBDE8E3
:102F2000F08716F0080F05D0281DB9B280B24246CE
:102F300000F0C6F8641E08BFBDE8F08716F0040F65
:102F400005D0681DB9B280B2424600F0B9F8641EDF
:102F500008BFBDE8F08716F0020F05D0A81DB9B272
:102F600080B2424600F0ACF8641E08BFBDE8F087AE
:102F700016F0010F05D0E81DB9B280B2424600F04C
:102F80009FF8641E08BFBDE8F0871AF8016F083586
:102F900094E716F0800F14BF42464A46B9B2A8B271
:102FA00000F08EF8641E08BFBDE8F08716F0400FF1
:102FB00014BF42464A46B9B2681C80B200F080F89D
:102FC000641E08BFBDE8F08716F0200F14BF42460C
:102FD0004A46B9B2A81C80B200F072F8641E08BF5D
:102FE000BDE8F08716F0100F14BF42464A46B9B24A
:102FF000E81C80B200F064F8641E08BFBDE8F087EA
:1030000016F0080F14BF42464A46B9B2281D80B2D6
:1030100000F056F8641E08BFBDE8F08716F0040FF4
:1030200014BF42464A46B9B2681D80B200F048F863
:10303000641E08BFBDE8F08716F0020F14BF4246B9
:103040004A46B9B2A81D80B200F03AF8641E08BF23
:10305000BDE8F08716F0010F14BF42464A46B9B2E8
:10306000E81D80B200F02CF8641E08BFBDE8F087B0
:103070001AF8016F08358CE7641E08BFBDE8F087B9
:10308000641E08BFBDE8F087641E08BFBDE8F08776
:10309000641E08BFBDE8F087641E08BFBDE8F08766
:1030A000641E08BFBDE8F087641E00E002E008BFB0
:1030B000BDE8F087641EDFD1BDE8F087C4180020AA
:1030C00010B50B4614461A460146FFF78DFE01481F
:1030D000048010BD000002607047000010B54FF47E
:1030E000005000F0ABF8002808BF10BD4FF480413D
:1030F000054800F0EBF9054901200870BDE81040D3
:10310000400300F095B800000008014009000020CD
:10311000022000F08DB8704770B5082000F08EF8DE
:10312000002808BF70BD082000F082F83B4C002545
:10313000A078002804BF2571E570401CC1B28A1E2A
:103140003748A170082A1CD2E1784908E1700421AF
:1031500000F0B5F930B1E07840F08000E0702079FF
:10316000401C2071A0780B2818BF70BD207900F09A
:103170007F01A17011F0010F00F080000DD068B147
:1031800046E00A29EED1042100F099F900281CBF7D
:10319000207940F08000E4D1E4E7C0B32078214AF0
:1031A00000F00F01A170E0785054FDF781F86078CD
:1031B000002818BF70BDA0780F2802D22078401CCC
:1031C0002070207810F03001A17004D010291CD09C
:1031D000202907D019E000F0B9FF207840F08000E6
:1031E000207012E01049097831B1032904BF00F0C2
:1031F0000F01042904D008E000F00F01032904D1D5
:1032000040F08000207000F0A1FFA57070BDFFE7C6
:10321000207800F0F00040F04000E1E71E000020C0
:1032200000100140D40000201400002070477047B7
:10323000014908607047000014040140054A00215C
:103240001268054B02401B6803421CBF002A012183
:103250000846704700040140140401408379214A64
:103260000168002B34D0136823EA01011160111D9D
:103270000A6803689A430A60017901F1804101F507
:1032800082310A6803681A430A60174A11680368A2
:1032900099431160131D1968D0F800C021EA0C0190
:1032A00019604179102908D001F1804101F582317E
:1032B0000A6800681043086070471168D0F800C0C1
:1032C00041EA0C01116019680068084318607047F2
:1032D000007900F1804000F58230026822EA0101A5
:1032E000016070470004014008040140704700007D
:1032F0008000A0F1C0400029016812BF41F0010127
:10330000014A114001607047FEFF0F00D0E9011231
:103310001143D0E903231A431143426911438269DF
:103320001143C2691143026A1143426A1143826A1E
:103330001143C26A1143026B0A4301688900A1F17B
:10334000C0410A608168082907D101688900A1F19C
:10335000C0410A6842F040020A60416BD1E9002393
:1033600042EA03128B68B1F80CC01B0243EA0C431B
:103370001A430B8A42EA03520B7D896942EA0362CF
:10338000114302689200A2F1C0425160C16AB1F5D6
:10339000804F08D000686FF070418000A0F1C040FD
:1033A000C0F804117047816BD1E9002342EA03128F
:1033B0008B68B1F810C01B0243EA0C531A430B7D13
:1033C000896942EA0362006811438000A0F1C040AD
:1033D000C0F8041170478A0721F0030101F1804110
:1033E00001F58031120F0F23D1F808C093402CEA69
:1033F00003038B608B6890401843886070472DE909
:10340000F00191F803C000220CF00F031CF0100F24
:103410001CBF91F802C04CEA030391F800C04FF0C2
:103420000F071CF0FF0F4FF0010618BF04681CD0F7
:103430000D8806FA02FC05EA0C05654511D19500D8
:1034400007FA05F824EA080403FA05F52C43CD78B9
:10345000282D08BFC0F814C003D0482D08BFC0F8FD
:1034600010C0521C082AE3D304600A88FF2A87BFD1
:1034700044680022BDE8F001704702F1080C0D8895
:1034800006FA0CFC05EA0C05654511D1950007FA12
:1034900005F824EA080403FA05F52C43CD78282D15
:1034A00008BFC0F814C0CD78482D08BFC0F810C0C0
:1034B000521C082AE1D34460BDE8F001704702467F
:1034C000002092680A4218BF01207047416170478E
:1034D0000161704770477047704770477047000040
:1034E00070B500F09DFE6548FFF7A8FC644D002014
:1034F0002870FF2000F0D6FE00281CBF012070BD00
:1035000000F068FEFA281CBF022070BD0024287855
:1035100010F0800F0DD1601CC4B240F2DC50FFF7F8
:103520008DFC322C01D9032070BD287810F0800F5B
:10353000F1D000F04FFE00F04DFEF32000F0B2FE9F
:1035400000F048FEFA281CBF042070BDC82000F01F
:10355000A9FE00F03FFEFA281CBF052070BDF32035
:1035600000F0A0FE00F036FEFA281CBF062070BD59
:10357000642000F097FE00F02DFEFA281CBF072003
:1035800070BDF32000F08EFE00F024FEFA281CBF70
:10359000082070BD502000F085FE00F01BFEFA28C8
:1035A0001CBF092070BDF22000F07CFE00F012FE6E
:1035B000FA281CBF0A2070BD00F00CFE314C2070B0
:1035C000F32000F06FFE00F005FEFA281CBF0B2070
:1035D00070BD0A2000F066FE00F0FCFDFA281CBF5A
:1035E0000C2070BDF22000F05DFE00F0F3FDFA2823
:1035F0001CBF0D2070BD00F0EDFD2070E82000F034
:1036000051FE00F0E7FDFA281CBF0E2070BD03201C
:1036100000F048FE00F0DEFDFA281CBF0F2070BD50
:10362000E62000F03FFE00F0D5FDFA281CBF102078
:1036300070BDF32000F036FE00F0CCFDFA281CBF70
:10364000112070BD642000F02DFE00F0C3FDFA28AB
:103650001CBF122070BDF42000F024FE00F0BAFD63
:10366000FA281CBF132070BD2020074928700120B4
:10367000087000F085FD002070BD0000803801005A
:103680001E000020140000201F00002038B500217B
:103690004FF0006000F050FD4FF4A06000F042FDDC
:1036A0001C208DF8000000248DF801408DF80240A8
:1036B00001258DF80350684600F0F8FC07208DF8CE
:1036C00000008DF801408DF802408DF803506846E7
:1036D00000F0ECFC29208DF800008DF801508DF8E9
:1036E00002408DF80350684600F0E0FC38BD000051
:1036F0002DE9FF4F83B0FA4F1098DDF850A0DDF8A8
:1037000048809946042800F05C8128DC012858D0C4
:1037100002281CBF07B0BDE8F08F00200090B9F16F
:10372000000FDCBF07B0BDE8F08FDDE9036147188B
:10373000EB4998F80050059C097B1398C346BAF1F1
:10374000000F01F002017DD0002900F0030051D0EC
:10375000002878D0012877D0022876D0ABE008285E
:1037600000F0CC8110281CBF07B0BDE8F08F4FF0EF
:10377000000BB9F1000FDCBF07B0BDE8F08FDDE949
:1037800003600BEB000A387B059C454610F0020FE6
:1037900000F00F82002C0BDD2A8822B11FFA8AF17B
:1037A000B0B2FFF78DFC641EAD1C761C002CF3DC60
:1037B00011980BF1010B8044D945E0DC07B0BDE85E
:1037C000F08F0024B9F1000FDCBF07B0BDE8F08F27
:1037D0000598CDE9000A049842462118139B0398E6
:1037E000FFF73CFB1198641C8044A145F0DC07B056
:1037F000BDE8F08F20B101280BD0022814D01EE0C4
:10380000A909B0B23AF81120B9B2FFF759FC641E09
:1038100072D0C5F30111701C3AF81120B9B280B210
:10382000FFF74EFC641E67D0C5F38101B01C3AF867
:103830001120B9B280B2FFF743FC641E5CD005F0E2
:10384000030103E049E00EE019E026E03AF8112018
:10385000F01CB9B280B2FFF733FC641E4CD01BF8E9
:10386000015F361DCCE715F0C00F06D0A909B0B234
:103870003AF81120B9B2FFF723FC641E3CD015F0D2
:10388000300F08D0C5F30111701C3AF81120B9B2FD
:1038900080B2FFF715FC641E2ED015F00C0F08D077
:1038A000C5F38101B01C3AF81120B9B280B2FFF71C
:1038B00007FC641E7AD015F0030F08D005F0030151
:1038C000F01C3AF81120B9B280B2FFF7F9FB641E80
:1038D0006CD01BF8015F361DC5E700F0030029B16D
:1038E00088B301283AD0022844D04FE028B10128FB
:1038F0000AD0022811D019E058E0AA09B9B2B0B232
:10390000FFF7DEFB641E51D0701CB9B280B2C5F364
:103910000112FFF7D5FB641E48D0B01CB9B280B2CB
:10392000C5F38102FFF7CCFB641E3FD0F01C05F00D
:103930000302B9B280B2FFF7C3FB641E36D01BF896
:10394000015F361DD9E7FFE715F0C00F04D0AA09C3
:10395000B9B2B0B2FFF7B4FB641E27D015F0300F38
:1039600006D0701CB9B280B2C5F30112FFF7A8FBF4
:10397000641E1BD015F00C0F06D0B01CB9B280B27B
:10398000C5F38102FFF79CFB641E0FD015F0030FF7
:1039900006D0F01C05F00302B9B280B2FFF790FB2D
:1039A000641E03D01BF8015F361DCDE711988044DB
:1039B0000098401C00904845FFF6B7AE07B0BDE840
:1039C000F08F00200090B9F1000FDCBF07B0BDE818
:1039D000F08F0146DDE9035001EB000B404998F8F8
:1039E0000060059C097B13984746BAF1000F01F06F
:1039F00002013ED000F0010009B1D8B126E048B97B
:103A00003109A8B23AF811201FFA8BF1FFF758FBE1
:103A1000641E68D006F00F01681C3AF811201FFAE6
:103A20008BF180B2FFF74CFB641E5CD017F8016F7E
:103A3000AD1CE5E7300907D03109A8B23AF81120EA
:103A40001FFA8BF1FFF73CFB641E4CD016F00F0FF2
:103A500009D006F00F01681C3AF811201FFA8BF10B
:103A600080B2FFF72DFB641E3DD017F8016FAD1C2F
:103A7000E0E700F0010009B1B8B120E038B932093F
:103A80001FFA8BF1A8B2FFF71BFB641E2BD0681C3A
:103A900006F00F021FFA8BF180B2FFF711FB641ED4
:103AA00021D017F8016FAD1CE9E7300905D03209C4
:103AB0001FFA8BF1A8B2FFF703FB641E13D016F0B8
:103AC0000F0F07D0681C06F00F021FFA8BF180B2AF
:103AD000FFF7F6FA641E06D017F8016FAD1CE4E795
:103AE000C4180020FFE7119880440098401C009003
:103AF0004845FFF66EAF07B0BDE8F08F4FF0000B02
:103B0000B9F1000FDCBF07B0BDE8F08FDDE903506D
:103B10000BEB00062E48059C4746007B10F0020F79
:103B200012D0BAF1000F2ED0002C39DD387828B130
:103B30003AF81020B1B2A8B2FFF7C2FA641E6D1CA9
:103B40007F1C002CF2DC2BE0BAF1000F0ED0002C11
:103B500026DD3878B1B23AF81020A8B2FFF7B0FAF3
:103B6000641E6D1C7F1C002CF3DC19E0002C17DD9B
:103B70003A78B1B2A8B2FFF7A3FA641E6D1C7F1C9D
:103B8000002CF5DC0CE0002C0ADD3A781AB1B1B259
:103B9000A8B2FFF795FA641E6D1C7F1C002CF4DCA4
:103BA00011980BF1010B8044D945AFDC07B0BDE89B
:103BB000F08F002C7FF7FCAD2A881FFA8AF1B0B293
:103BC000FFF77EFA641EAD1C761C002CF4DCEFE5DA
:103BD000C418002070B514460B4605461A46214607
:103BE000FFF702F9611B4FF0000048BF70BD044AA7
:103BF000044B52881A80401C8842FBDD70BD0000D7
:103C0000C41800200000026070B5144613460D462B
:103C10000A460146FFF7E8F8611B4FF0000048BF75
:103C200070BD044A044B52881A80401C8842FBDD58
:103C300070BD0000C41800200000026010B594465A
:103C4000121A5C1A521C641C54430A466146FFF760
:103C5000CBF80020002C98BF10BD0449044A4988C5
:103C60001180401CA042FBD310BD0000C4180020EE
:103C70000000026070B505460C462A2000F0BAFD2F
:103C8000281200F0BBFDE8B200F0B8FD6D1C281250
:103C900000F0B4FDE8B200F0B1FD2B2000F0AAFD69
:103CA000201200F0ABFDE0B200F0A8FD641C201271
:103CB00000F0A4FDE0B200F0A1FD2E2000F09AFD7E
:103CC000064908880888098800F4784200F0FC005A
:103CD00042EAC00040EAD12070BD0000000002604E
:103CE000002070477047704789B280B2FFF7E8B98B
:103CF0007047411E81B0C9B22EBF4FF4E15201B0EE
:103D00007047ADF8002004E0BDF80000401EADF89B
:103D10000000BDF800000028F6D1491EC9B2F0D25B
:103D200001B070472DE9F043012197B0080200F07F
:103D30008BFB01217C2000F09FFB10258DF80350A8
:103D400003248DF802406802DFF84893ADF80000C4
:103D500069464846FFF753FBDFF83C830227ADF87E
:103D6000007069464046FFF74AFB8DF80240182074
:103D70008DF803004CF20370ADF800006946484628
:103D8000FFF73DFB4FF68070C44CADF8000069466C
:103D90002046FFF734FBADF8005069464846FFF770
:103DA0002EFB2020ADF8000069464846FFF727FBB0
:103DB0008020ADF8000069464846FFF720FBE0147C
:103DC000ADF8000069464846FFF719FB6114484604
:103DD000FFF77EFB10214846FFF77AFB202148467B
:103DE000FFF776FBE1144846FFF772FB8021484657
:103DF000FFF76EFB2021AA48FFF76AFB28208DF809
:103E0000030001268DF80260ADF800606946404667
:103E1000FFF7F5FA6A20ADF8000069462046FFF783
:103E2000EEFA00240520CDE91140139428061494DD
:103E3000CDE915404FF00808CDE90248CDE904541A
:103E40000194079400140894CDE909400B9410A83C
:103E50000C94CDE90D40CDE90F0701A8FFF756FA04
:103E600001210020FFF744FA1420FFF742FF690206
:103E70004846FFF72BFB0A20FFF73BFF6902484645
:103E8000FFF726FB0A20FFF734FF4FF0C0432A203C
:103E900018808448048004800480EF2101802B2155
:103EA00019800480048006808F21018035211980CB
:103EB0000480B1211980112101800E210180B421DB
:103EC00019800780B62119801E2101800780C0213A
:103ED00019800580C121198006800B210180C52130
:103EE00019801721018027210180FA21198006807D
:103EF000E02119800480A0F80080112101800D21AB
:103F0000018013210180172101801C2101807B2168
:103F100001802D21018005802F2101802921018030
:103F2000122101801C2101802F210180E1211980B3
:103F30002B2101802E210180292101800D2101806A
:103F4000162101801521018029210180572101803E
:103F50002F210180092101801A2101802321018064
:103F600031210180372101803C210180E22119802B
:103F70000021018008210180112101800D21018093
:103F800013210180172101801C2101807B210180E8
:103F90002D210180102101802F2101802921018004
:103FA000122101801C2101802F210180E321198031
:103FB0002B2101802E210180292101800D210180EA
:103FC00016210180152101802921018057210180BE
:103FD0002F210180092101801A21018023210180E4
:103FE00031210180372101803C210180E4211980A9
:103FF0000021018008210180112101800D21018013
:1040000013210180172101801C2101807B21018067
:104010002D210180102101802F2101802921018083
:10402000122101801C2101802F210180E5211980AE
:104030002B2101802E210180292101800D21018069
:10404000162101801521018029210180572101803D
:104050002F210180092101801A2101802321018063
:1040600031210180372101803C2101803A211980D2
:10407000552101803621198060210180112018808E
:104080007820FFF736FE292018800748076017B010
:10409000BDE8F08300140140000801400018014011
:1040A00000100140000002601008014010B4C27806
:1040B00001784FF00F0C01242AB3194A126801F15C
:1040C000E02102F4E062C2F5E062120AC2F10403E8
:1040D0002CFA02F290F801C00CFA03F390F802C037
:1040E0000CEA02021A43120181F80024007800F061
:1040F0001F0104FA01F14009800000F1E020C0F83E
:10410000001110BC704701F01F0004FA00F04909CB
:10411000890001F1E021C1F8800110BC7047000066
:104120000CED00E0034940F0FD7040F08060086055
:10413000704700000CED00E021F07F0121F06041AC
:10414000084301490860704708ED00E0094908206C
:1041500008600948016821F008010160074801680A
:1041600021F470410160016841F44051016008216F
:10417000FFF7ACB9140401400004014000100140F5
:1041800010B5114C206820F470402060206840F485
:1041900000402060206820F470602060206840F4B7
:1041A0000060206008212046FFF792F90421204694
:1041B000FFF78EF90549082008600548016841F0BD
:1041C0000801016010BD000000100140140401400E
:1041D000000401402DE9F04100240F4D274640F234
:1041E0002626601C84B20120FEF728FE297811F0F3
:1041F000800F07D0094A01F00E00175C01F0700033
:10420000287004E0B44298BF11F0400FE9D0FFF7E6
:10421000B7FF3846BDE8F0811E000020D400002022
:1042200070B584B00121102000F026F90824ADF803
:10423000004048258DF803500320194E8DF80200E8
:1042400069463046FFF7DBF80421ADF800108DF821
:10425000035069463046FFF7D2F803210220FFF7EA
:10426000BAF84FF4A060FFF75DFF00258DF80C5001
:104270000C2002948DF80D0001248DF80E4002A848
:10428000FEF7ECFF09208DF804008DF805508DF83D
:1042900006408DF8074001A8FFF708FF04B070BD85
:1042A000001001402DE9F0476349074608204FF010
:1042B000000808606148016821F008010160DFF82A
:1042C0008091D9F8000020F47040C9F80000D9F8B6
:1042D000000040F44050C9F80000D9F8000020F474
:1042E0007060C9F80000D9F8000040F44070C9F8C7
:1042F000000008214846FFF7E9F80C20FEF79EFD74
:1043000004214846FFF7E2F80120FEF797FDD9F8AF
:10431000000020F47040C9F80000D9F8000040F413
:104320000040C9F8000008214846FFF7D1F80020F6
:1043300000F03EFA002808BF002604D0FFF720FF57
:104340000220BDE8F08717F0010F4FF00401484646
:1043500006D0FFF7BDF808F1010000F0FF0801E00A
:10436000FFF7B4F800247F08254608214846FFF7E8
:10437000A6F868B90120FEF761FD601C84B2B4F5AF
:10438000C86F05D808214846FFF799F8A842F1D030
:104390000024012508214846FFF791F801280DD196
:1043A0000120FEF74BFD601C84B2B4F5C86F05D840
:1043B00008214846FFF783F8A842F1D0701CC6B226
:1043C000082EC0D318F0010F4FF00401484627D043
:1043D000FFF77CF8012000F0EBF9002000F0E8F98D
:1043E00004214846FFF774F8012000F0E1F9D9F8FC
:1043F000000020F47060C9F80000D9F8000040F413
:104400000060C9F80000002000F0D2F904214846FD
:10441000FFF755F838B1FFF7B3FE0120BDE8F0878C
:10442000FFF756F8D6E7012000F0C2F9FFF7A8FE23
:104430000020BDE8F08700001404014000040140A2
:104440000010014070470000044A0029516914BF60
:10445000084321EA0000506170470000001002404C
:10446000044A0029D16914BF084321EA0000D06141
:104470007047000000100240044A0029916914BFEF
:10448000084321EA000090617047000000100240DC
:1044900070474FF40030FEF7CBBE7047704770474F
:1044A0004FF0E02040F2CF214161054AF02182F82F
:1044B000141D002181610722026101617047000023
:1044C0000FE000E002480168491E016070470000EB
:1044D00000000020374882B0016841F0010101600E
:1044E0004268354911404160016821F4102121F0F2
:1044F00080710160016821F480210160416821F42C
:10450000FE0141604FF41F01816000220092019280
:10451000016841F480310160016801F400310191CA
:104520000099491C0091019919B90099B1F5A06F42
:10453000F2D1016811F4003F08BF019233D001218C
:1045400001911E490A6842F010020A600A6822F0CE
:1045500003020A600A6842F002020A604168416090
:1045600041684160416841F480614160416821F4E3
:104570007C114160416841F4E8114160016841F0FB
:1045800080710160016811F0007FFBD0416821F06B
:1045900003014160416841F002014160416801F05E
:1045A0000C010829FAD106494FF00060086002B0FA
:1045B00070470000001002400000FFF80020024099
:1045C00008ED00E07047704770477047704700B5CE
:1045D000012183B00846FFF743FF6420ADF80400D3
:1045E00043F63F00ADF800000020ADF80600ADF83E
:1045F000020069464FF0804000F044F8012188072E
:1046000000F020F80121880700F025F8012211466A
:10461000900700F02EF803B000BD000010B5012196
:10462000880700F01BF805480168491C016001215A
:10463000BDE81040880700F00EB80000040000201C
:10464000704770470029018814BF41F0800121F0B4
:10465000800101807047C94301827047038A0022AC
:1046600080890B4200EA01001CBF0028012210468D
:104670007047002A828914BF114322EA0101818117
:104680007047000010B40288DFF88CC0234B6045EF
:1046900018BF984211D0B0F1804F1CBFA0F18044E8
:1046A000B4F5806409D0A0F18044B4F500641CBF67
:1046B000A0F18044B4F5406403D14C8822F070022C
:1046C0002243A0F18044B4F580541CBFA0F1804483
:1046D000B4F5A05403D0CC8822F440722243028067
:1046E0008A8882850A880285604518BF98420DD065
:1046F000A0F18042B2F5A0321FBFA0F18042B2F516
:10470000A232A0F18042B2F5A43201D1097A018629
:104710000121818210BC7047002C0140003401400F
:104720002DE9F8434FF43040ADF8000001241B4F51
:104730008DF8024010258DF8035069463846FEF783
:104740005EFE0820ADF80000DFF854808DF80240CE
:104750008DF8035069464046FEF751FE0821404659
:10476000FEF7B6FEA003ADF800008DF80240482623
:104770008DF8036069463846FEF741FEADF80050FB
:104780008DF802408DF8036069464046FEF737FE1B
:1047900021033846FEF79AFEBDE8F883000C01407D
:1047A0000010014070477047704770477047000025
:1047B00070B5002400280CBF0125002508210C4EEF
:1047C0003046FEF77CFEA8420FD10120FEF736FBF3
:1047D000601C84B2B4F5C86F01D9012070BD0821F6
:1047E0003046FEF76CFEA842EFD0002070BD0000FE
:1047F000001001404FF0C041088070470149088017
:104800007047000000000260FFF764FE012145F2DE
:104810001D00FFF731FEFFF743FEFEF737FFFFF7FE
:10482000D6FEFFF77DFFFFF77DFAFBF7A8FF1D48D7
:10483000FBF7B2FD6FF07F40FBF7ACFDFF20FBF70D
:10484000A7FDFBF78FFF0F22C82117A0FBF7BEFCC7
:104850002822052118A0FBF7B1FC5022052119A040
:10486000FBF7ACFC782205211AA0FBF7A7FCA022DD
:1048700005211CA0FBF7A2FCB422052125A0FBF713
:104880009DFCC82205212EA0FBF798FC4FF47F0069
:10489000FBF77EFD2822052107A0FBF78FFCFEF722
:1048A0001FFEFEE77468000854696B792054657335
:1048B0007420426F61726400312E205247422054AE
:1048C00065737400322E20446973706C6179204DD9
:1048D0004D000000332E204D61696E204D656E75D0
:1048E0000000000020202020506C6561736520705E
:1048F00072657373202275702220746F2073656C4B
:104900006563742C2070726573732022646F776EF8
:1049100022200000746F20456E7465723B4966204A
:10492000796F752077616E7420746F20726574756D
:10493000726E2C706C6561736520707265737300A4
:104940002252657374222E00D91C0008A51C000891
:10495000546869732075432D475549206C6962720C
:1049600061727920697320666F72206576616C755B
:104970006174696F6E20707572706F7365206F6EF1
:104980006C790A0A2020202057656C636F6D2074B3
:104990006F206F75722073686F703A20687474703E
:1049A0003A2F2F74696B792E74616F62616F2E6379
:1049B0006F6D0A0000000000000000000000000011
:1049C000000000000000183C3C3C181818001818A3
:1049D0000000000000666666240000000000000081
:1049E000000000000000006C6CFE6C6C6CFE6C6CD7
:1049F0000000000018187CC6C2C07C060686C67C73
:104A00001818000000000000C2C60C183060C686EE
:104A1000000000000000386C6C3876DCCCCCCC7622
:104A20000000000000303030600000000000000096
:104A30000000000000000C18303030303030180C0E
:104A400000000000000030180C0C0C0C0C0C18308E
:104A5000000000000000000000663CFF3C66000013
:104A600000000000000000000018187E1818000068
:104A700000000000000000000000000000181818EE
:104A80003000000000000000000000FE00000000F8
:104A900000000000000000000000000000001818E6
:104AA000000000000000000002060C183060C0800A
:104AB000000000000000386CC6C6C6C6C6C66C380A
:104AC0000000000000001838781818181818187E10
:104AD0000000000000007CC6060C183060C0C6FE56
:104AE0000000000000007CC606063C060606C67CE8
:104AF0000000000000000C1C3C6CCCFE0C0C0C1EDA
:104B0000000000000000FEC0C0C0FC060606C67C17
:104B10000000000000003860C0C0FCC6C6C6C67CED
:104B2000000000000000FEC606060C1830303030D1
:104B30000000000000007CC6C6C67CC6C6C6C67C97
:104B40000000000000007CC6C6C67E0606060C7883
:104B500000000000000000001818000000181800F5
:104B600000000000000000001818000000181830B5
:104B700000000000000000060C18306030180C0621
:104B80000000000000000000007E00007E00000029
:104B9000000000000000006030180C060C183060A7
:104BA0000000000000007CC6C60C18181800181879
:104BB000000000000000007CC6C6DEDEDEDCC07C3B
:104BC00000000000000010386CC6C6FEC6C6C6C68F
:104BD000000000000000FC6666667C66666666FC97
:104BE0000000000000003C66C2C0C0C0C0C2663CFD
:104BF000000000000000F86C6666666666666CF889
:104C0000000000000000FE6662687868606266FE70
:104C1000000000000000FE6662687868606060F076
:104C20000000000000003C66C2C0C0DEC6C6663A96
:104C3000000000000000C6C6C6C6FEC6C6C6C6C680
:104C40000000000000003C18181818181818183C2C
:104C50000000000000001E0C0C0C0C0CCCCCCC781E
:104C6000000000000000E666666C78786C6666E618
:104C7000000000000000F06060606060606266FE3E
:104C8000000000000000C6EEFEFED6C6C6C6C6C6C0
:104C9000000000000000C6E6F6FEDECEC6C6C6C6B0
:104CA0000000000000007CC6C6C6C6C6C6C6C67CDC
:104CB000000000000000FC6666667C60606060F0DA
:104CC0000000000000007CC6C6C6C6C6C6D6DE7C94
:104CD0000C0E00000000FC6666667C6C666666E68C
:104CE0000000000000007CC6C660380C06C6C67C0A
:104CF0000000000000007E7E5A1818181818183C92
:104D0000000000000000C6C6C6C6C6C6C6C6C67C31
:104D1000000000000000C6C6C6C6C6C6C66C381075
:104D2000000000000000C6C6C6C6D6D6D6FEEE6C91
:104D3000000000000000C6C66C7C38387C6CC6C61B
:104D4000000000000000666666663C181818183CF3
:104D5000000000000000FEC6860C183060C2C6FECF
:104D60000000000000003C30303030303030303C4B
:104D70000000000000000080C0E070381C0E060239
:104D80000000000000003C0C0C0C0C0C0C0C0C3C4B
:104D90000000000010386CC6000000000000000099
:104DA0000000000000000000000000000000000003
:104DB00000FF00000030180C0000000000000000A0
:104DC000000000000000000000780C7CCCCCCC7609
:104DD000000000000000E06060786C666666667C3B
:104DE0000000000000000000007CC6C0C0C0C67CFF
:104DF0000000000000001C0C0C3C6CCCCCCCCC7631
:104E00000000000000000000007CC6FEC0C0C67CA0
:104E10000000000000001C3632307830303030782E
:104E200000000000000000000076CCCCCCCCCC7C94
:104E30000CCC78000000E060606C7666666666E622
:104E40000000000000001818003818181818183C46
:104E50000000000000000606000E06060606060614
:104E600066663C000000E06060666C78786C66E620
:104E70000000000000003818181818181818183CFE
:104E8000000000000000000000ECFED6D6D6D6C61A
:104E9000000000000000000000DC666666666666D2
:104EA0000000000000000000007CC6C6C6C6C67C2C
:104EB000000000000000000000DC66666666667C9C
:104EC0006060F000000000000076CCCCCCCCCC7C44
:104ED0000C0C1E000000000000DC7666606060F0D4
:104EE0000000000000000000007CC660380CC67C9A
:104EF000000000000000103030FC30303030361C34
:104F0000000000000000000000CCCCCCCCCCCC7663
:104F1000000000000000000000C6C6C6C6C66C380F
:104F2000000000000000000000C6C6D6D6D6FE6C09
:104F3000000000000000000000C66C3838386CC665
:104F4000000000000000000000C6C6C6C6C6C67E3F
:104F5000060CF8000000000000FECC183060C6FE11
:104F60000000000000000E18181870181818180E0D
:104F70000000000000001818181818181818181841
:104F8000000000000000701818180E18181818708B
:104F9000000000000076DC000000000000000000BF
:104FA0000000000000001C300000000000000000B5
:104FB0000000000000007018000000000000000069
:104FC000000000000010386C00000000000000002D
:104FD0000000000000C6C600000000000000000045
:104FE000000000000076DC0000000000000000006F
:104FF0000000000000000000003818181818183CC5
:10500000000000000000386C6C6C786C6666666CA2
:1050100060C00000102810007CC6C6FEC6C6C6C60A
:10502000000000000030483000780C7CCCCCCC76FE
:105030000000000000001E7AD8D8D8FED8D8DADEEA
:10504000000000000000FC666666F6F6666666FC18
:10505000000000000000F0607C666666667C60F020
:10506000000000000000000000CC323E70B0B26CC6
:10507000000000000000D060B0187CC6C6C6C67C28
:10508000000000000000E06060786C6C786060F008
:105090000000000000007CC6CECED6D6E6E6C67C78
:1050A0000000000000000000003A44CED6E644B8FC
:1050B00000000000000000386CC6C6FEC6C6C6C6AA
:1050C00000000000000000FE66626878686266FE0C
:1050D000000000000000003C181818181818183CB0
:1050E000000000000000007CC6C6C6C6C6C6C67C5E
:1050F00000000000000000C6C6C6C6C6C6C6C67C04
:1051000000000000000000C6E6F6FEDECEC6C6C601
:105110000000000000001818001818183C3C3C184B
:1051200000000000000030300030303060C6C67C27
:10513000000000001C300000000000000000000023
:1051400000000000701800000000000000000000D7
:1051500000000000386C00000000000000000000AB
:1051600000000000C6C600000000000000000000B3
:105170000000000076DC00000000000000000000DD
:10518000000000000000000000000000000000001F
:1051900018300000000000000000000000000000C7
:1051A0000000000000000010107CD0D0D0D0D67CD1
:1051B0001010000000001C30303078303030325C8D
:1051C0000000000000000000423C24243C4200009B
:1051D000000000000000663C187E18187E181818A1
:1051E00000000000000018181818000018181818FF
:1051F0000000000000003C6460384444380C4C78E7
:105200000000000000C6C600000000000000000012
:1052100000000000000000007E425A5E5A427E00FC
:10522000000000000000700878888874000000000A
:10523000000000000000000000366CD86C36000052
:105240000000000000000000000000FC040400005A
:1052500000000000000000000000007C00000000D2
:1052600000000000000000007C4454444C547C00CA
:1052700000000000FE000000000000000000000030
:10528000000000000070D888D87000000000000006
:10529000000000000000000010107C1010007C00D6
:1052A00000000000788C0C183060FC00000000004A
:1052B00000000000788C0C780C8C78000000000056
:1052C00000000000000E1820000000000000000098
:1052D0000000000000000000006666666666667CEE
:1052E0006060C00000007ED4D4D474141414143E42
:1052F0000000000000000000000038383800000006
:105300000000000060E060606060F00000000000ED
:105310000000000000003C6666663C0000000000E3
:10532000000000000000000000D86C366CD80000BF
:1053300000000000000040C0444810244C941E04AB
:1053400000000000000040C04448102C5284081E99
:10535000000000000000C0204428D0244C941E040B
:10536000000000000000000000663C183C660000E1
:1053700000000000000000001818007E001818004F
:105380000000000000000000000818387FFF7F3890
:1053900018080000000000000010181CFEFFFE1C92
:1053A0001810000000000000000010387CFE3838A3
:1053B0003838000000000000000038383838FE7C23
:1053C000381000000000000606060616367EFE7C39
:1053D00030100000000000000000030306060CCCA3
:1053E000783800009D00FFFF9E00FFFF9F00FFFF39
:1053F000A000FFFFA100FFFFA200FFFFFFFFFFFFD4
:10540000FFFFFFFFFFFFFFFFFFFFFFFFFFFFFFFFAC
:10541000FFFFFFFFFFFFFFFFFFFFFFFFFFFFFFFF9C
:10542000FFFFFFFF7E00FFFF7600FFFF7F00FFFF13
:105430008000FFFF8100FFFF8200FFFF8300FFFF6E
:105440008400FFFF8500FFFF8600FFFF8700FFFF4E
:105450008800FFFF8900FFFF8A00FFFF8B00FFFF2E
:105460008C00FFFF8D00FFFF8E00FFFF8F00FFFF0E
:105470009000FFFF9100FFFF9200FFFF9300FFFFEE
:105480009400FFFF7D00FFFF9500FFFF9600FFFFE8
:105490009700FFFF9800FFFF9900FFFF9A00FFFFB2
:1054A0007700FFFF700079007000780070007A00CC
:1054B00070007C0070007B006600FFFF6800FFFF4B
:1054C00023007D00710079007100780071007A007E
:1054D00071007B00720079007200780072007A001F
:1054E00072007B006900FFFF75007C00730079008B
:1054F0007300780073007A0073007C0073007B00F7
:105500009B00FFFF6E00FFFF7400790074007800BD
:1055100074007A0074007B00390078006A00FFFF95
:105520006500FFFF4100600041005F004100610035
:1055300041006300410062006700FFFF6B00FFFF56
:1055400043007D004500600045005F0045006100AC
:10555000450062006400600064005F006400610058
:10556000640062006C00FFFF4E0063004F006000AB
:105570004F005F004F0061004F0063004F0062006A
:105580009C00FFFF6F00FFFF55005F0055006000AB
:10559000550061005500620059005F006D00FFFF7B
:1055A000590062009000FF00E4530008B44900086D
:1055B000B4490008A455000820007F000808010035
:1055C000F9190008211B00082B1B0008311B0008DB
:1055D0000000000010100101AC5500080C070A0083
:1055E00000000000000000000000000000000000BB
:1055F00000000000000000000000000030303030EB
:1056000030303030303030000030300000000000EA
:10561000000000006666666666000000000000008C
:10562000000000000000000000000000000000007A
:105630000C600C600CE018C0FFF0FFF018C0318067
:105640003180FFF0FFF031807300630063000000E1
:105650000000000000000000000000000000040046
:105660001F003F8075C064C0640074003E000F805E
:1056700005C004C004C064C075C03F801F000400A2
:105680000400000000000000000000000000000016
:10569000000000001C0600360C00630C00631800BC
:1056A0006318006330003660001C670000CD800086
:1056B000D8C00198C00198C00318C0060D80060725
:1056C00000000000000000000000000000000000DA
:1056D000000000000000000007800FC01860186084
:1056E00018C00D800F001F00339861D860F0606013
:1056F00070F03FD81F08000000000000000000000C
:1057000000000000606060606000000000000000B9
:105710000000000000000000000000000408181055
:1057200030306060606060606030301018080400E5
:10573000000000004020301018180C0C0C0C0C0C51
:105740000C18181030204000000000001818FF1836
:105750003C660000000000000000000000000000A7
:105760000000000000000000000000000000060033
:105770000600060006007FE07FE006000600060047
:105780000600000000000000000000000000000013
:105790000000000000000000000000000000000009
:1057A0000030301010200000000000000000000059
:1057B00000000000FCFC00000000000000000000F1
:1057C00000000000000000000000000000000000D9
:1057D0000030300000000000000000000C0C181821
:1057E000181830303060606060C0C00000000000F9
:1057F00000000000000000001F003FC030C06060DB
:105800006060606060606060606060606060606098
:1058100030C03FC00F80000000000000000000000A
:105820000000000000000000030003000F001F0044
:105830003300030003000300030003000300030020
:10584000030003000300000000000000000000004F
:1058500000000000000000001F803FC070E060609A
:105860000060006000C000C0018007000E0018004A
:1058700030007FE07FE0000000000000000000003A
:1058800000000000000000001F003F8071C060C0E9
:1058900000C00180070007C000E000600060606099
:1058A00070C03FC01F0000000000000000000000AA
:1058B00000000000000000000080018003800780DD
:1058C0000D800D801980318061807FE07FE0018054
:1058D0000180018001800000000000000000000045
:1058E00000000000000000001FC01FC0300030009A
:1058F000300037807FC060E0006000600060606062
:1059000070C03FC01F000000000000000000000049
:1059100000000000000000000F801FC030E0306079
:10592000600067807FC070E06060606060606060A1
:1059300030C01FC00F000000000000000000000089
:1059400000000000000000007FE07FE000C0018058
:10595000018003000300060006000C000C000C0090
:1059600018001800180000000000000000000000EF
:1059700000000000000000000F001F8030C030C099
:1059800030C030C01F801F8030C0606060606060C9
:1059900070E03FC01F800000000000000000000019
:1059A00000000000000000000F003F8030C0606079
:1059B00060606060606030E03FE01E60006060C07A
:1059C00070C03F801F0000000000000000000000C9
:1059D0000000000000000000303000000000000067
:1059E0000030300000000000000000000000000057
:1059F00030300000000000000030301010200000A7
:105A0000000000000000000000000000002000E096
:105A100003C00F003800600038000F0003C000E032
:105A20000020000000000000000000000000000056
:105A30000000000000000000000000000000000066
:105A40007FE07FE00000000000007FE07FE00000DA
:105A50000000000000000000000000000000000046
:105A60000000000000000000000000004000700086
:105A70003C000F0001C0006001C00F003C0070003E
:105A800040000000000000000000000000000000D6
:105A900000000000000000001F803FC070E0606058
:105AA000006000C001C0038007000600060000007F
:105AB00000000600060000000000000000000000DA
:105AC00000000000000000000000000000FE0007D1
:105AD000FF800F03C01C00E018736031FB70338E31
